:100000000C94BD0A0C94BE090C9480090C942D0A22
:100010000C94AA080C94810A0C9404090C94FC0911
:100020000C94DA0A0C94DA0A0C94DA0A0C94E50FB0
:100030000C94DA0A0C94DA0A0C94DA0A0C94CE0FB7
:100040000C94DA0A0C94DA0A0C9451080C94DA0A2B
:100050000C94DA0A0C94DA0A0C94DA0A0C94DA0A90
:100060000C94DA0A0C94DA0A0C94DA0A0C94DA0A80
:100070000C94A8110C94DA0A0C94DA0AA2A0C840D5
:10008000A6A42F248120AF00010204081020408084
:10009000FE00920100FF0000030001000000960036
:1000A00000325A2300C8000A009600FCFF2800F422
:1000B000012300C8000A009600FCFF2800F401326A
:1000C0000064003200640000001400C8002800C86A
:1000D000000500AA0000001400DE032800C8000587
:1000E00000AA0000001400DE030F00230000001E21
:1000F0000000001400C8000F00190000000A0000F2
:10010000000A0000000000000000000000000000E5
:1001100000000000000000000000000000000000DF
:1001200000000000000000000000000000000000CF
:1001300000000000000000000000000000000000BF
:1001400000000000000000000000000000000000AF
:100150000000000000000000000001010003080C86
:10016000101C120000000000000000000000000051
:10017000000000000000000000000000000000007F
:100180000000007C00FF33FF337C00000000000013
:100190000000000000000000003C003C00000000E7
:1001A000003C003C000000000000000000000210C5
:1001B0001E901FF0037E021E1E901FF0037E021E83
:1001C000001000000000007804FC0CCC0CFF3FFF86
:1001D0003FCC0CCC0F880700000000000000303836
:1001E00038381C380E00078003C001E038703838FA
:1001F000381C0000000000001FB83FFC31C621E29F
:10020000373E1E1C1C0036002200000000000000CB
:1002100000000027003F001F000000000000000059
:10022000000000000000000000F003FC0FFE1F07AC
:100230003801200120000000000000000000000044
:1002400000012001200738FE1FFC0FF00300000012
:1002500000000000000000980CB80EE003F80FF852
:100260000FE003B80E980C000000000000000080B2
:100270000180018001F00FF00F80018001800100FA
:10028000000000000000000000000000B800F800BE
:100290007800000000000000000000000000008066
:1002A00001800180018001800180018001800100C6
:1002B00000000000000000000000000038003800CE
:1002C00038000000000000000000000000001800DE
:1002D0001C000E00078003C001E000700038001C05
:1002E000000E000000F807FE1F061E03338331C313
:1002F00030633033301E18FE1FF807000000000086
:10030000000C300C300E30FF3FFF3F00300030005B
:1003100030000000001C301E38073C033E033783CA
:1003200033C331E33077303E301C3000000C0C0E0C
:100330001C0738C330C330C330C330C330E7397E05
:100340001F3C0E0000C003E003700338031C030EC3
:10035000030703FF3FFF3F0003000300003F0C7F44
:100360001C633863306330633063306330E338C319
:100370001F830F0000C00FF01FF839DC30CE30C7EC
:1003800030C330C330C339801F000F0000030003A7
:100390000003000330033C030FC303F3003F000FCF
:1003A0000003000000000FBC1FFE39E730C330C35C
:1003B00030C330E730FE39BC1F000F00003C007E28
:1003C00000E730C330C330C338C31CC30EE707FE99
:1003D00003FC000000000000000000701C701C7096
:1003E0001C000000000000000000000000000000F1
:1003F000000000709C70FC707C0000000000000099
:1004000000000000000000C000E001F00338071CFD
:100410000E0E1C07380330000000000000000060D2
:10042000066006600660066006600660066006609C
:1004300006000000000000033007380E1C1C0E38B8
:1004400007F003E001C0000000000000001C001ED7
:1004500000070003008337C337E30077003E001C2A
:100460000000000000F80FFE1F0718F333FB371BD6
:1004700036FB37FB370736FE03F801000000380073
:100480003FE007FC061F061F06FC06E007003F00D2
:100490003800000000FF3FFF3FC330C330C330C30C
:1004A00030E730FE39BC1F000F00000000F003FCF5
:1004B0000F0E1C073803300330033007380E1C0CB6
:1004C0000C00000000FF3FFF3F0330033003300308
:1004D0003007380E1CFC0FF00300000000FF3FFF48
:1004E0003FC330C330C330C330C330C330033003E5
:1004F0003000000000FF3FFF3FC300C300C300C344
:1005000000C300C3000300030000000000F003FC70
:100510000F0E1C07380330C330C330C330C73FC68B
:100520003F00000000FF3FFF3FC000C000C000C010
:1005300000C000C000FF3FFF3F00000000000000BF
:100540000003300330FF3FFF3F0330033000000063
:100550000000000000000E001E00380030003000D7
:100560003000300038FF1FFF0700000000FF3FFF92
:100570003FC000E001F00338071C0E0E1C073803D3
:100580003000000000FF3FFF3F003000300030002F
:1005900030003000300030003000000000FF3FFF2E
:1005A0003F1E007800E001E00178001E00FF3FFFE1
:1005B0003F00000000FF3FFF3F0E003800F000C08A
:1005C000030007001CFF3FFF3F00000000F003FC9A
:1005D0000F0E1C07380330033007380E1CFC0FF0D9
:1005E0000300000000FF3FFF3F830183018301837D
:1005F000018301C701FE007C0000000000F003FC45
:100600000F0E1C073803300336073E0E1CFC3FF06C
:100610003300000000FF3FFF3F830183018303831A
:1006200007830FC71DFE387C30000000003C0C7EA5
:100630001CE738C330C330C330C330C7398E1F0CFA
:100640000F000000000000030003000300FF3FFF55
:100650003F030003000300000000000000FF07FF4D
:100660001F003800300030003000300038FF1FFF1E
:10067000070000000007003F00F801C00F003E0027
:100680003EC00FF8013F00070000000000FF3FFFE1
:100690003F001C0006800380030006001CFF3FFF94
:1006A0003F0000000003300F3C1C0E3003E001E06F
:1006B0000130031C0E0F3C03300000000003000F4C
:1006C000003C00F000C03FC03FF0003C000F0003C2
:1006D00000000000000330033C033E0333C331E35A
:1006E0003033301F300F30033000000000000000B6
:1006F00000FF3FFF3F0330033003300330000000B2
:1007000000000000000E001C0038007000E000C077
:100710000180030007000E001C001800000000000C
:10072000000330033003300330FF3FFF3F00000081
:1007300000000000006000700038001C000E000780
:10074000000E001C00380070006000000000C000B7
:10075000C000C000C000C000C000C000C000C00099
:10076000C000C006082C12000000000000000006B7
:100770005F060000070300070300247E247E240098
:10078000242B6A1200006313086463003649562064
:100790005000000703000000003E4100000000413F
:1007A0003E000000083E1C3E080008083E08080005
:1007B00000E0600000000808080808000060600011
:1007C00000002010080402003E5149453E0000424E
:1007D0007F4000006251494946002249494936009C
:1007E0001814127F10002F49494931003C4A4949E9
:1007F00030000171090503003649494936000649B0
:1008000049291E00006C6C00000000EC6C00000028
:10081000081422410000242424242400004122142E
:1008200008000201590906003E415D551E007E1177
:1008300011117E007F49494936003E414141220065
:100840007F4141413E007F49494941007F090909F3
:1008500001003E4149497A007F0808087F000041B5
:100860007F410000304040403F007F08142241009B
:100870007F40404040007F0204027F007F02040866
:100880007F003E4141413E007F09090906003E418B
:1008900051215E007F090919660026494949320045
:1008A00001017F0101003F4040403F001F204020E8
:1008B0001F003F403C403F006314081463000708DA
:1008C00070080700714945430000007F4141000066
:1008D0000204081020000041417F000004020102D0
:1008E0000480808080808000000307000000205486
:1008F000545478007F444444380038444444280029
:10090000384444447F00385454540800087E090990
:10091000000018A4A4A47C007F0404780000000058
:100920007D4000004080847D00007F10284400004E
:1009300000007F4000007C04180478007C040478E8
:100940000000384444443800FC44444438003844EF
:100950004444FC00447844040800085454542000E3
:10096000043E442400003C40207C00001C20402029
:100970001C003C6030603C006C10106C00009CA0BF
:10098000603C00006454544C0000083E41410000AB
:100990000000770000000041413E08000201020112
:1009A00000003C2623263C63075F01E10B4B0C7FD4
:1009B0000C8F0C9D0CAB0CB90CC80CD50CE10CEFDA
:1009C0000C020D120D220D280D41726520796F75F4
:1009D00020737572653F00534156452055502020C5
:1009E00020444F574E2020454E5445520020202091
:1009F00020202020202020202020202020004341D3
:100A00004E43454C2020444F574E20202055502027
:100A1000204F4B004143432D5A2064616D70696E35
:100A200067005472696D20503A20202020523A000D
:100A300020202020202020202020202020202020B6
:100A40000052004E00526576657273652047595218
:100A50004F00202020202020202020202020202087
:100A60002020006E6F200079657300596573004E79
:100A70006F2000412054726920005920547269206F
:100A800000582051756164002B2051756164005835
:100A90002051756164002B20517561640053696EAB
:100AA000676C6500427564647920005452492000E7
:100AB00051756164004241434B20202020202020BA
:100AC000202020202020202020200020004572729D
:100AD0000020202020004E410041524D4544004856
:100AE00065666E79436F70746572322076312E328E
:100AF0002E30004F4B20003100580032002B0058A0
:100B00000059002B004100580053696E676C650066
:100B10004275646479200054524920005175616423
:100B200000472D54554E4500414C54484C44005309
:100B30005441424C45004143524F202000360D8421
:100B4000334C0D800DF13B0000360D6833960D9A45
:100B50000D0A30B00D9A0D8F2FE50D800DA838FAD3
:100B60000D800DD036FA0D800D2636FA0D800D80E1
:100B700034340E6B0E5F3A810E800D962FD40EB575
:100B80000A6830FF0EB50ACB32350F650F2730FFEC
:100B90000E7B0F4331350F650F4B33E10BB50AB6B2
:100BA0002F0000910F36330000594157202020209C
:100BB00020202020202000526F6C6C20202020203C
:100BC00020202020005069746368202620526F6C1A
:100BD0006C20005069746368202020202020202091
:100BE000002D54414B45204F46462050524F504512
:100BF0004C4C45525321210A2D507265737320636A
:100C00006F6E74696E75650A2D5475726E204F662D
:100C1000662051756164636F707465722E0A0A2DC7
:100C2000517561642077696C6C20737461727465AE
:100C3000640A696E2041524D45442054414B45435E
:100C40004152452073746174650A00507265737374
:100C500020436F6E74696E756520616674657220DD
:100C600063616C6962726174696F6E2E0A0A756ED7
:100C7000706C756720626174746572792E0A004722
:100C800079726F2050494420456469746F72005333
:100C9000656C66204C6576656C696E6700416C74A6
:100CA000697475646520486F6C64004D6F646520DD
:100CB00053657474696E6773004D6973632E2053B6
:100CC000657474696E6773004164762E204D5055CB
:100CD000363035300053656E736F7220546573740F
:100CE00000526563656976657220546573740053BC
:100CF000656E736F722043616C6962726174696FB3
:100D00006E00537469636B2043656E746572696E1F
:100D100067004553432043616C6962726174696F77
:100D20006E00446562756700466163746F72792076
:100D30005265736574002020202020202020202070
:100D4000202020202020204D454E55000A0A4261D7
:100D500074743A20202020202020760A0A0A525853
:100D60003A202D2020534E3A2020202053543A2060
:100D70002D0A466C793A202020426F6172643A0055
:100D80004241434B205550202020444F574E2020B5
:100D9000454E544552000A0A0A00202020202020F7
:100DA0002020202020202020202020444F4E4500BD
:100DB0000A0A0A4D313A202020202020204D343AC2
:100DC0000A4D323A202020202020204D333A0A4577
:100DD00053432043616C6962726174696F6E206D68
:100DE0006F64650A000A524553544152540A202048
:100DF00020202020424F415244000A503A20202017
:100E0000202020204C696D3A0A493A2020202020D9
:100E100020204C696D3A0A443A20202020202020CE
:100E20004C696D3A0A0A5472696D20503A202020AC
:100E300020523A004672616D6520547970653A0A15
:100E400042756464792053797374656D3A0A426F10
:100E5000617264204469723A0A466C792020204409
:100E600069723A0A536F6E61723A004241434B20F5
:100E700050524556204E455854204348414E474510
:100E8000004175746F2044697361726D3A0A566F40
:100E90006C7420416C61726D3A2020202020202F3C
:100EA0003130760A5468726F74746C65206D696EA7
:100EB0003A0A537469636B205363616C653A0A5252
:100EC00043204578706F3A0A502D52204C696E6B62
:100ED00065643A004759524F2052616E67653A0A7D
:100EE0004759524F204C50463A0A414343205261E1
:100EF0006E67653A0A414343204C50463A0A004720
:100F000079726F20583A0A4779726F20593A0A4726
:100F100079726F205A3A0A4163632020583A0A4195
:100F200063632020593A0A41636320205A3A0A42F7
:100F30006174743A0020434820202052582D3120FB
:100F400020202052582D320A41696C3A0A456C65BE
:100F50003A0A5275643A0A5468723A0A4175783A04
:100F60000A52583A004241434B20202020202020A2
:100F70002020434F4E54494E5545004241434B209B
:100F8000434C52202020202020202020444F4E453A
:100F9000004E4F2020202020202020202020202014
:100FA0002020205945530000407A10F35A00A072C7
:100FB0004E18090010A5D4E80000E8764817000094
:100FC000E40B54020000CA9A3B000000E1F5050062
:100FD0000080969800000040420F000000A08601AB
:100FE000000000102700000000E80300000000647B
:100FF00000000000000A00000000000100000000E6
:10100000002C76D888DC674F0823DFC1DFAE59E1BA
:10101000B1B796E5E3E453C63AE651997696E8E629
:10102000C28426EB898C9B62ED407C6FFCEFBC9CFC
:101030009F40F2BAA56FA5F490055A2AF75C936B0E
:101040006CF9676DC11BFCE0E40D47FEF520E6B5C9
:1010500000D0ED902E0300943577050080841E08A3
:101060000000204E0A000000C80C333333330F98C1
:101070006E12831141EF8D2114893BE65516CFFE88
:10108000E6DB18D1844B381BF77C1D901DA4BBE414
:1010900024203284725E228100C9F124ECA1E53D56
:1010A000270078941F920F920FB60F9211242F935E
:1010B0003F934F935F936F937F938F939F93AF93E0
:1010C000BF93CF93DF93EF93FF938091CC059091E3
:1010D000CD0501969093CD058093CC05C0912D054B
:1010E000D0912E05CE018F779070009799F4CE01A4
:1010F000880F892F881F990B91958770806B60E00E
:101100000E943D0B80E160E00E943D0B80E060E0CA
:101110000E943D0BFE01E35DFE4F808161E00E9475
:101120003D0B2196D370D0932E05C0932D05FF91D2
:10113000EF91DF91CF91BF91AF919F918F917F916F
:101140006F915F914F913F912F910F900FBE0F9034
:101150001F9018951F920F920FB60F9211241F9394
:101160002F933F934F935F936F937F938F939F93AF
:10117000AF93BF93CF93DF93EF93FF9310B1809121
:101180005C08182780B180935C08C0918400D091DE
:10119000850014FF18C080B184FF05C0D0936E088D
:1011A000C0936D0810C082E00E942F2A8091C30670
:1011B0009091C4069093500880934F088091250821
:1011C0008F718093250815FF0BC080B185FF05C086
:1011D000D0936C08C0936B0803C081E00E942F2A53
:1011E000FF91EF91DF91CF91BF91AF919F918F913F
:1011F0007F916F915F914F913F912F911F910F9030
:101200000FBE0F901F9018951F920F920FB60F925E
:1012100011241F932F933F934F935F936F937F936B
:101220008F939F93AF93BF93CF93DF93EF93FF93EE
:1012300016B180915B08182786B180935B08C09136
:101240008400D091850015FF18C086B185FF05C0C8
:10125000D0936A08C093690810C080E00E942F2ACA
:101260008091C3069091C4069093500880934F08D4
:10127000809125088F718093250817FF2DC08091DC
:101280003307379B0BC0D0937008C0936F08813031
:1012900019F5469A449A429A439A1EC0813061F4E5
:1012A00080912508807F41F48091650581FD04C00F
:1012B000469844984298439883E00E942F2A809150
:1012C000C3069091C406909354088093530880916C
:1012D00025088F7280932508FF91EF91DF91CF91C0
:1012E000BF91AF919F918F917F916F915F914F913E
:1012F0003F912F911F910F900FBE0F901F90189547
:101300001F920F920FB60F9211242F933F934F937A
:101310005F936F937F938F939F93AF93BF93EF935D
:10132000FF9389B183FF09C080918400909185006B
:10133000909366088093650810C083E00E94062A97
:101340008091C3069091C4069093560880935508E7
:1013500080912508827F80932508FF91EF91BF91AE
:10136000AF919F918F917F916F915F914F913F913D
:101370002F910F900FBE0F901F9018951F920F92F4
:101380000FB60F9211242F933F934F935F936F9358
:101390007F938F939F93AF93BF93EF93FF9389B105
:1013A00082FF09C08091840090918500909360082D
:1013B00080935F0810C080E00E94062A8091C306D7
:1013C0009091C406909358088093570880912508FF
:1013D000817F80932508FF91EF91BF91AF919F91FD
:1013E0008F917F916F915F914F913F912F910F90CE
:1013F0000FBE0F901F9018951F920F920FB60F926D
:1014000011242F933F934F935F936F937F938F9309
:101410009F93AF93BF93EF93FF9389B180FF09C070
:101420008091840090918500909362088093610878
:1014300003C081E00E94062AFF91EF91BF91AF9116
:101440009F918F917F916F915F914F913F912F91DC
:101450000F900FBE0F901F9018951F920F920FB60E
:101460000F9211242F933F934F935F936F937F932A
:101470008F939F93AF93BF93EF93FF9380912F0729
:101480008F3FF9F480913A0780FF1BC083B182FF40
:1014900009C08091CC059091CD0590935E08809312
:1014A0005D081EC08091CC059091CD0520915D080E
:1014B00030915E08821B930B9093F3058093F205A5
:1014C0000FC083B182FF09C0809184009091850094
:1014D000909364088093630803C082E00E94062A08
:1014E000FF91EF91BF91AF919F918F917F916F91FC
:1014F0005F914F913F912F910F900FBE0F901F90D2
:1015000018951F920F920FB60F9211242F933F93AD
:101510004F935F936F937F938F939F93AF93BF93FB
:10152000EF93FF9383B180FF0CC080918400909172
:101530008500909372088093710881E0809325075D
:101540000BC084E00E942F2A809100069091010632
:101550009093F7058093F605FF91EF91BF91AF91BE
:101560009F918F917F916F915F914F913F912F91BB
:101570000F900FBE0F901F90189511241FBECFEF34
:10158000D0E1DEBFCDBF11E0A0E0B1E0ECE4F4E8D3
:1015900002C005900D92A432B107D9F718E0A4E279
:1015A000B1E001C01D92A537B107E1F70E94481ACA
:1015B0000C9424420C940000EF92FF920F931F931F
:1015C000CF93DF93EC0100E010E0E62EFF240AC089
:1015D000299ACE010E94470E2998CE010E94470EFB
:1015E0000F5F1F4F0E151F059CF3DF91CF911F91C9
:1015F0000F91FF90EF90089584B1806F84B985B109
:10160000806F85B908950F931F9313B11095107FC4
:101610000091D1051092ED05112321F18091090867
:10162000813011F40E94640E8091D105811759F028
:101630008091C3069091C406845D9E4F90932501CE
:10164000809324010FC02091C3063091C4064091BD
:101650002401509125014217530720F491E0909303
:10166000ED0505C0802F80951093D10581231F9132
:101670000F9108958091D10508955D98679566272B
:1016800067959BB19F77962B9BB998E05C9887FFF5
:1016900002C0599A01C059985C9A915011F0880F74
:1016A000F5CF5D9A08956F7760932C01880F880FAE
:1016B000880F80932B01089580932C0160932B0158
:1016C0000895262F26952695269530E03695322FBB
:1016D000222737952795280F311DE62FF0E0E77078
:1016E000F070E857FF4FE49191E0411190E0809154
:1016F0002A018170D901A35DBE4F891729F0E095B9
:101700008C91E823EC9308958C918E2B8C93089503
:1017100080E094E0EDE2F1E0DF019C011D922150B8
:101720003040E1F780E060E00E94530B10922A0104
:1017300008958F929F92BF92CF92DF92EF92FF9285
:101740000F931F93DF93CF930F92CDB7DEB74C016A
:10175000E62EF42EC22EDD24BB24042F10E04FC051
:10176000832F877029F4F4010894811C911CB49094
:10177000CC2079F560912B01862F877019F5C8016F
:10178000831B910988309105ECF0630F669566958F
:101790006695A62FB0E0B695BA2FAA27B795A7955C
:1017A00080912C018D0DA80FB11D80912A01A35DA0
:1017B000BE4F80FF04C08B2D80958C9301C0BC92DE
:1017C000395F17C080912C01630F4B2D41708D0D37
:1017D0000CC08C2D813069F4B0FE0BC080912C01BF
:1017E00060912B01630F8D0D41E039830E94610BE5
:1017F0003981B6943F5F3F1508F4B2CFD394DE141D
:1018000010F430E0F8CF0F90CF91DF911F910F913E
:10181000FF90EF90DF90CF90BF909F908F900895B2
:10182000262FFC0164913196449102960E94990BF7
:1018300008958A3051F480912B0190912701890FEE
:1018400080932B0110922C010895E0912801F091D2
:1018500029010995609126014091270120E00E940D
:10186000990B80912C0190912601890F80932C0176
:101870000895EF92FF92CF93DF93E82EE7017E0168
:10188000F92EE70102C00E94190C89918823D9F72B
:10189000DF91CF91FF90EF900895CF93DF93EC010C
:1018A00002C00E94190CFE01219684918823C9F779
:1018B000DF91CF91089590912A01882311F09160D2
:1018C00001C09E7F90932A010895EF92FF920F939B
:1018D0001F93DF93CF9300D00F92CDB7DEB7182FB1
:1018E000822F4A835B8369830E945B0C812F69810D
:1018F0000E94530B4A815B818A0102C00E94190C2D
:10190000F80181918F018823C9F70E945B0C0F9029
:101910000F900F90CF91DF911F910F91FF90EF905B
:1019200008950F931F93DF93CF930F92CDB7DEB738
:10193000182F00E006C0812F69830E94190C0F5FE9
:1019400069810617C0F30F90CF91DF911F910F911E
:1019500008950F931F93DF93CF930F92CDB7DEB708
:101960008C0169830E94390CF80101900020E9F78D
:101970003197E01BF10B69816E1B80E20E94910C94
:101980000F90CF91DF911F910F9108950F931F93A7
:10199000DF93CF930F92CDB7DEB78C0169830E949E
:1019A0004D0CC8010E94343F6981681B80E20E948F
:1019B000910C0F90CF91DF911F910F910895EF92AD
:1019C000FF920F931F93DF93CF9300D0CDB7DEB775
:1019D000182F7A01802F2A8369830E945B0C812F44
:1019E00069810E94530BC7012A81622F0E94C60C95
:1019F00080E00E945B0C0F900F90CF91DF911F91C0
:101A00000F91FF90EF900895BF92CF92DF92EF92E7
:101A1000FF920F931F93DF93CF93CDB7DEB76297FB
:101A20000FB6F894DEBF0FBECDBFF82EB62ECA019A
:101A3000B901302F3250432F22E06E010894C11CAF
:101A4000D11C86013A8B0E94023F8E2D0E945B0CB6
:101A50008F2D6B2D0E94530BC6013A89632F0E9474
:101A6000A90C80E00E945B0C62960FB6F894DEBF72
:101A70000FBECDBFCF91DF911F910F91FF90EF90DF
:101A8000DF90CF90BF900895EF920F93E02E05E086
:101A90000E94040D0F91EF900895DF92EF92FF9254
:101AA0000F931F93DF93CF93CDB7DEB728970FB671
:101AB000F894DEBF0FBECDBFD82E162FCA017E010F
:101AC0000894E11CF11CB7014AE050E028870E940D
:101AD000513F802F0E945B0C8D2D612F0E94530B74
:101AE000C7012885622F0E94A90C80E00E945B0C30
:101AF00028960FB6F894DEBF0FBECDBFCF91DF9111
:101B00001F910F91FF90EF90DF90089516BC81E038
:101B100085BBEEE6F0E08081816080830895EEE68B
:101B2000F0E080818E7F808308950F931F93CF9381
:101B3000DF93082FCEE6D0E018810E948F0D81E858
:101B400060E00E943D0B802F8F7360E00E943D0B90
:101B50001883DF91CF911F910F910895BC010097D9
:101B600011F463E677E086E291E044E050E00E9401
:101B7000243F0895CF93DF93559A569A579A549AD3
:101B8000519A5E9889EF90E00197F1F700C000004C
:101B90005E9A89EF90E00197F1F700C00000CCE772
:101BA000D0E003C060E00E943D0BFE0121968491CD
:101BB0008823C1F780E090E00E94AE0D82E085BDF1
:101BC0000E94860DDF91CF910895CF92DF92EF9220
:101BD000FF920F931F93DF93CF930F92CDB7DEB792
:101BE0006C0125B1269526952695217000E010E020
:101BF000E62EFF2424C085B186958695869580952E
:101C00008170880F880F880F95B1977F982B95B9B1
:101C1000C60129830E94470E85B1869586958695D3
:101C200080958170880F880F880F95B1977F982BCA
:101C300095B9C6010E94470E0F5F1F4F29810E15EF
:101C40001F05CCF22170220F220F220F85B1877F52
:101C5000822B85B90F90CF91DF911F910F91FF904B
:101C6000EF90DF90CF9008950FC0000000000000BB
:101C70000000000000000000000000000000000064
:101C80000000000000000197009779F708951F9366
:101C9000CF93DF93EC0108C01AE084E690E00E9445
:101CA000340E1150D1F721972097B1F7DF91CF91E2
:101CB0001F910895509A489A229880E18093690074
:101CC00084E08DBB8CBB0895109209082B9810926C
:101CD00034061092330686E490E062E00E94DC0A4B
:101CE00080E00E9424330895109234061092330647
:101CF00080912F07882339F48091250890E08F7018
:101D00009070009761F480913407823021F48091C3
:101D10003507813021F080912608882319F00E9430
:101D2000640E089581E0809309088EE190E064E0FC
:101D30000E94E50D2B9A8CEB92E061E00E94DC0A98
:101D400010926B0610926A0682E00E94243380E0B3
:101D500090E0DC018093D1069093D206A093D30645
:101D6000B093D4068093E1069093E206A093E30635
:101D7000B093E4068093F1069093F206A093F306E5
:101D8000B093F40680936A0590936B05A0936C055D
:101D9000B0936D0580937A0590937B05A0937C05A5
:101DA000B0937D0580938A0590938B05A0938C0555
:101DB000B0938D0508958AE297E060E970E04FECFA
:101DC00050E00E94243F08950F931F93DF93CF9319
:101DD0000F92CDB7DEB78C0169830E94983F69816D
:101DE000861719F0C8010E94A03F0F90CF91DF9194
:101DF0001F910F910895CF92DF92EF92FF920F9370
:101E00001F93CF93DF93EC017B016A0100E010E0A8
:101E100008C0C701800F911F69910E94E40E0F5FF7
:101E20001F4F0C151D05A8F3DF91CF911F910F9146
:101E3000FF90EF90DF90CF9008958AE297E060E006
:101E400070E04FEC50E00E94FB0E0895F8948AE297
:101E500097E060E070E04FEC50E00E94FB0E789459
:101E60008CEB92E061E00E94DC0A08950E94DB0E98
:101E7000E2EAF7E020EF35E080E694E02193319349
:101E8000938B828B31872087958F848F47E0EC3A44
:101E9000F407A1F70E94260F08958AE297E060E018
:101EA00070E04FEC50E00E94883F80912A079091AB
:101EB0002B078E3F910541F480912C0790912D07BF
:101EC00021E08239920719F00E94360F08958AE2C4
:101ED00097E060E070E04FEC50E00E94883F08958A
:101EE000DF93CF9300D0CDB7DEB7880F4A836983E5
:101EF0000E945C106981862F0E94AD104A81842F58
:101F00000E94AD100E949E100F900F90CF91DF9114
:101F10000895CF92DF92EF92FF920F931F93DF937A
:101F2000CF9300D00F92CDB7DEB7082FE22E880FE7
:101F30004A835B8369830E945C106981862F0E94BB
:101F4000AD10802F880F81600E949B104A815B81B9
:101F5000042F152FCC24DD24FF240FC00894C11CAE
:101F6000D11CCE14DF0419F00E94CD1002C00E94D3
:101F7000E610F80180830F5F1F4FCE14DF0474F367
:101F80000E949E100F900F900F90CF91DF911F91A4
:101F90000F91FF90EF90DF90CF9008951F920F92D6
:101FA0000FB60F9211248F939F938091C306909147
:101FB000C40601969093C4068093C3069F918F91A7
:101FC0000F900FBE0F901F9018951F920F920FB693
:101FD0000F9211248F939F938091CF059091D005FC
:101FE00001969093D0058093CF059F918F910F908C
:101FF0000FBE0F901F90189581E080938100809311
:102000006F001092C4061092C30693E09093B10043
:102010008093700017BA1092B2001092D0051092FF
:10202000CF0508951092B90081E18093B80084E053
:102030008093BC00089594EA9093BC002FEF30E0A9
:1020400040E050E09091BC0097FF06C0211531059B
:102050004105510531F42CC0215031094109510984
:1020600088F79091B900987F983011F0903101F580
:102070008093BB0084E88093BC008FEF90E0A0E0E9
:10208000B0E02091BC0027FF05C00097A105B10575
:1020900029F40EC00197A109B10998F79091B900F0
:1020A000987F983139F081E0903429F480E00895E8
:1020B00081E0089580E0089564EA54E844E960937B
:1020C000BC0020E030E09091BC0097FD06C02F5F7F
:1020D0003F4F91E020303907B1F79091B900987FD8
:1020E000983011F0903159F78093BB005093BC00A9
:1020F00020E030E09091BC0097FD06C02F5F3F4F7D
:1021000091E020303907B1F79091B900987F903273
:1021100011F0983579F44093BC0020E030E09091C4
:10212000BC0094FFCCCF2F5F3F4F91E020303907A8
:10213000B1F7C5CF08950E941B10089584E98093DC
:10214000BC0080E090E02091BC0024FF05C0019617
:1021500021E080309207B9F708958093BB0084E8AE
:102160008093BC008FEF90E0A0E0B0E02091BC0035
:1021700027FF05C00097A105B10529F40CC0019700
:10218000A109B10998F79091B900987F81E0983240
:1021900019F480E0089581E0089584EC8093BC00F8
:1021A0008FEF90E0A0E0B0E02091BC0027FF05C0D9
:1021B0000097A105B10529F407C00197A109B1094C
:1021C00098F78091BB00089580E0089584E880939B
:1021D000BC008FEF90E0A0E0B0E02091BC0027FFB2
:1021E00005C00097A105B10529F407C00197A10911
:1021F000B10998F78091BB00089580E0089520917F
:102200002F072F3F61F410922F059093CD008093FC
:10221000CC0086E08093CA0088E98093C9000895C5
:102220009091C80095FFFCCF8093CE000895EF9267
:10223000FF920F931F93CF93DF93082F192FC0E0C6
:10224000D0E0E62EFF2406C0F80181918F010E94A4
:1022500010112196CE15DF05BCF3DF91CF911F91B0
:102260000F91FF90EF900895DF93CF9300D0CDB7FB
:10227000DEB780910908813009F465C080E090E004
:1022800020E0FC01E75CF74F3081230F0196883096
:102290009105B9F780914108281709F054C0809141
:1022A0003908833421F0863509F04DC033C0809160
:1022B0003A08823089F0833020F4813009F043C03D
:1022C00005C0863009F18730F1F521C08EE190E03C
:1022D00064E00E94E50D37C082E690E09A8389832E
:1022E00083E40E94101182E00E941011CE01019639
:1022F00062E00E9417118DE397E069810E94171137
:1023000085E40E9410111FC00E94260F1CC00E946D
:10231000EC2D19C080913A0860913B0840913C082F
:102320009FEF699FB0011124680F711D665D784FA2
:10233000242F332727FD3095EDE3F8E0CB01BF01D3
:10234000532F0E943D3F0F900F90CF91DF91089542
:102350001F920F920FB60F9211242F933F934F931A
:102360005F936F937F938F939F93AF93BF93EF93FD
:10237000FF938091C80087FFFCCF8091CE008093AF
:10238000340880913005882399F08091C30690919C
:10239000C4062091350830913608821B930B853195
:1023A000910530F01092300510922F0510922E08F2
:1023B000E0912F05F0E080913408E75CF74F8083CF
:1023C00080913005882319F08130C1F406C0109245
:1023D0002F0581E08093300507C080912F0588305C
:1023E00019F40E9434110AC0F8948091C3069091A8
:1023F000C4069093360880933508789480912F0511
:102400008F5F80932F0580912F05893021F41092E2
:102410002F0510923005FF91EF91BF91AF919F91E1
:102420008F917F916F915F914F913F912F910F907D
:102430000FBE0F901F90189590E080979C01220F7F
:10244000331F280F391F83E0220F331F8A95E1F7CE
:102450002D593E4FC901089590E080979C01220FAD
:10246000331F280F391F220F331F2959384FC90135
:1024700008950E94553C0E944D0F0E94542A80915D
:102480002F078F3F31F480913A0780FF02C00E94EE
:102490005A0E3E9A3C9A3A9A3B9A469844984298E9
:1024A0004398219A239A13981092800010928100E9
:1024B000109282000E9412100E94E72D80912F0737
:1024C0008F3F21F48AE090E00E94FF100E947A2F53
:1024D0000E94FC0A0E94FC0F0E94BA0D0E94880B09
:1024E0000E944D3C789408950E94962B8091350669
:1024F00090913606009741F48091CF059091D005D8
:1025000090933606809335068091CF059091D00543
:102510002091350630913606821B930B8B30910546
:1025200030F00E940A3C109236061092350608954B
:1025300083E00E9424330E947412FDCF10920F0892
:102540001092100810921108109213081092190896
:1025500002C00E94741280912E0782FFFACF81FF81
:10256000F8CF089580913206882309F468C18091DC
:10257000E805813009F063C180912508807F09F06A
:102580005EC1809116078E7F809316078091330677
:1025900090913406009741F48091BD069091BE065B
:1025A000909334068093330680910908813009F0B6
:1025B0005CC02091E805822F90E0FC01EE0FFF1F28
:1025C00043E0880F991F4A95E1F7E80FF91FEF5A8A
:1025D000F94F8481958121E08139920784F010922E
:1025E000B8068091BD069091BE06209133063091C9
:1025F0003406821B930B21E08233920798F5609199
:102600003207662309F41BC18091BD069091BE0676
:1026100020916A0630916B068217930720F410927E
:102620006B0610926A0620916A0630916B0621159E
:10263000310521F490936B0680936A0620916A0617
:1026400030916B06821B930B70E048EE53E0649F61
:102650009001659F300D749F300D112428173907A4
:1026600008F0EDC00E94640E0895882309F0E7C0C9
:102670002091E805822F90E0FC01EE0FFF1F23E080
:10268000880F991F2A95E1F7E80FF91FEF5AF94FC4
:10269000848195812EEF803792079CF41092B806C2
:1026A0008091BD069091BE0620913306309134068C
:1026B000821B930B21E08233920718F00E94740E64
:1026C00008952091E805822F90E0FC01EE0FFF1F96
:1026D000A3E0880F991FAA95E1F7E80FF91FEF5AB9
:1026E000F94F8081918121E081399207ACF01092FD
:1026F000B8068091BD069091BE06209133063091B8
:102700003406821B930B21E08233920708F497C0B2
:1027100081E08093360757C02091E805822F90E032
:10272000FC01EE0FFF1F63E0880F991F6A95E1F728
:10273000E80FF91FEF5AF94F808191812EEF803712
:102740009207BCF41092B8068091BD069091BE0627
:102750002091330630913406821B930B21E08233A3
:10276000920708F46CC01092360780E590E064E0B0
:102770002DC02091E805822F90E0FC01EE0FFF1F95
:1027800043E0880F991F4A95E1F7E80FF91FEF5AC8
:10279000F94F828193812EEF80379207F4F41092E3
:1027A000B8068091BD069091BE0620913306309107
:1027B0003406821B930B21E08233920708F43FC05A
:1027C00082E08093690680E590E068E00E94E50D74
:1027D000109234061092330608952091E805822F56
:1027E00090E0FC01EE0FFF1F23E0880F991F2A9550
:1027F000E1F7E80FF91FEF5AF94F8281938121E049
:1028000081399207E4F01092B8068091BD0690914C
:10281000BE062091330630913406821B930B21E0D3
:102820008233920760F081E08093690680E590E052
:1028300064E00E94E50D109234061092330608956C
:1028400080913206882309F487C080912508807F13
:1028500009F082C08091330690913406009741F4CC
:102860008091BD069091BE06909334068093330606
:1028700080915D0690915E0621E0813992078CF08F
:102880001092B8068091BD069091BE062091330645
:1028900030913406821B930B8135910500F180E263
:1028A00018C080915D0690915E062EEF80379207EA
:1028B000B4F41092B8068091BD069091BE062091A6
:1028C000330630913406821B930B8135910538F025
:1028D00080E480931507109234061092330680919D
:1028E0005B0690915C0621E081399207BCF0109262
:1028F000B8068091BD069091BE06209133063091B6
:102900003406821B930B8135910530F180E1809371
:1029100015071092340610923306089580915B06D5
:1029200090915C062EEF80379207B4F41092B806AF
:102930008091BD069091BE062091330630913406F9
:10294000821B930B8135910538F080E88093150741
:102950001092340610923306089510929705109243
:102960009605109299051092980510929B05109269
:102970009A0580913407823059F480915F069091D6
:1029800060068A5D9D4F90939D0580939C0504C0D1
:1029900010929D0510929C050E94FD2808952F928B
:1029A0003F924F925F926F927F928F929F92AF92DF
:1029B000BF92CF92DF92EF92FF920F931F93CF932C
:1029C000DF930E94962B2091E805822F90E0FC0176
:1029D000EE0FFF1F23E0880F991F2A95E1F7E80FFC
:1029E000F91FEF5AF94F66817781882777FD809527
:1029F000982F0E94643D6093DE057093DF058093FD
:102A0000E0059093E1050E94AE2EF8948091C306F4
:102A10009091C4069093BE068093BD0678940E9460
:102A2000DB1C21E02093B80680912F07882389F4CE
:102A300080912508807F69F48091630690916406F7
:102A40003EEF803793071CF41092E80502C02093F4
:102A5000E80580913506909136062091BD063091AB
:102A6000BE06009729F430933606209335069EC0A3
:102A7000281B390B2530310508F498C00E940A3C08
:102A800060919F076623F1F0E090A606F090A706FC
:102A90000091A8061091A90670E0882777FD80951F
:102AA000982F0E94643D9B01AC01C801B7010E94B0
:102AB000C53C9091160787FF02C0926001C09D7FC0
:102AC0009093160780911607882351F085B186955B
:102AD00080958170880F95B19D7F982B95B901C025
:102AE000299880912F078F3F09F05CC02091310514
:102AF0002223A1F180916306909164064EEF803706
:102B0000940754F588E08093690610923E0710926E
:102B10003D0710924207109241071092460710920B
:102B2000450710924C0710924B07109250071092D5
:102B30004F07109254071092530710925A071092A1
:102B4000590710925E0710925D071092620710926B
:102B500061071092310526C0213071F08091630623
:102B60009091640651E08139950724F081E08093CB
:102B7000690616C02B30B1F080916306909164060F
:102B800021E08039920774F4809163069091640685
:102B90003EEF8137930734F082E0809369068BE043
:102BA0008093310510923606109235066091DE054D
:102BB0007091DF058091E0059091E10520E030E023
:102BC00048E452E40E94C53C87FF09C00E94B2124B
:102BD0000E94AD140E949E1B0E94B71C29C48091C4
:102BE0000908882329F40E94AD140E94201420C4EF
:102BF00010926B0610926A062091E805822F90E0F1
:102C0000FC01EE0FFF1F13E0880F991F1A95E1F7E3
:102C1000E80FF91FEF5AF94F808191810E942C260D
:102C200080911F0790912007A0912107B091220762
:102C30008093D2059093D305A093D405B093D50586
:102C40002091E805822F90E0FC01EE0FFF1FA3E02A
:102C5000880F991FAA95E1F7E80FF91FEF5AF94F6E
:102C6000828193810E942C2680911F0790912007DA
:102C7000A0912107B09122078093D6059093D705A4
:102C8000A093D805B093D9052091E805822F90E054
:102C9000FC01EE0FFF1F63E0880F991F6A95E1F7B3
:102CA000E80FF91FEF5AF94F64817581882777FD86
:102CB0008095982F0E94643D20E030E040E05FE383
:102CC0000E94183E6093DA057093DB058093DC0563
:102CD0009093DD056091DE057091DF058091E00540
:102CE0009091E1050E94313DEB01809134078130E4
:102CF00071F440913507809184069091850620916A
:102D0000B8053091B905413009F073C04EC06091EB
:102D1000840670918506882777FD8095982F0E94FC
:102D2000643D7B018C01BE01882777FD8095982F3B
:102D30000E94643D5B016C01C801B7012FE135E8D9
:102D40004BEA5FE30E94183E9B01AC01C601B5014E
:102D50000E94613C0E94313D70939B0560939A05EF
:102D6000C801B7012FE135E84BE25FE30E94183E4E
:102D70000E94313D9B0170938506609384064091CB
:102D8000B8055091B905CE01821B930B841B950B9E
:102D90009093970580939605C40FD51FC21BD30B44
:102DA000D0939905C09398053FC0AE01421B530BC9
:102DB000481B590B5093970540939605AE01481B4D
:102DC000590B420F531F5093990540939805AC013E
:102DD000420F531F4C0F5D1F50939B0540939A0564
:102DE000C80FD91FC21BD30BD0939D05C0939C0560
:102DF0001BC0AE01420F531F509399054093980595
:102E0000AE01421B530B50939D0540939C059E01C0
:102E1000281B390B3093970520939605C80FD91FAF
:102E2000D0939B05C0939A0580916906813009F083
:102E3000D5C19091340780913607913009F027C1B0
:102E4000809096059090970560909C0570909D05E8
:102E50004090980550909905C0919A05D0919B0596
:102E6000813009F0CBC06091D2057091D30580917B
:102E7000D4059091D5052EEA37E441E25FE30E9444
:102E8000183E8B017C01862F912FAE2DBF2D809394
:102E9000D2059093D305A093D405B093D505609146
:102EA000D6057091D7058091D8059091D9052EEA65
:102EB00037E441E25FE30E94183ED62EC72EB82EBB
:102EC000A92EA6019501852F942FA32FB22F8093B1
:102ED000D6059093D705A093D805B093D905B40132
:102EE000882777FD8095982F0E94643D202F312FF1
:102EF0004E2D5F2D0E94613C0E94313D1B01B301AC
:102F0000882777FD8095982F0E94643D202F312FD0
:102F10004E2D5F2D0E94613C0E94313D3B01B2016C
:102F2000882777FD8095982F0E94643D202F312FB0
:102F30004E2D5F2D0E94603C0E94313D4B01BE0131
:102F4000882777FD8095982F0E94643D202F312F90
:102F50004E2D5F2D0E94603C0E94313DEB01B1017E
:102F6000882777FD8095982F0E94643DD601F50152
:102F70002B2F3A2F4F2F5E2F0E94613C0E94313D34
:102F80007093970560939605B401882777FD809527
:102F9000982F0E94643DD601F5012B2F3A2F4F2F19
:102FA0005E2F0E94613C0E94313D709399056093B1
:102FB0009805BE01882777FD8095982F0E94643D73
:102FC000D601F5012B2F3A2F4F2F5E2F0E94603C28
:102FD0000E94313D70939B0560939A05B301882749
:102FE00077FD8095982F0E94643DD601F5012B2F27
:102FF0003A2F4F2F5E2F0E94603C43C1E090D605D0
:10300000F090D7050091D8051091D905B401882713
:1030100077FD8095982F0E94643DA80197010E943A
:10302000613C0E94313D7093970560939605BE0107
:10303000882777FD8095982F0E94643DA80197010D
:103040000E94603C0E94313D70939B0560939A05FD
:10305000E090D205F090D3050091D4051091D505EC
:10306000B201882777FD8095982F0E94643DA801C2
:1030700097010E94603C0E94313D709399056093D6
:103080009805B301882777FD8095982FF4C081308B
:1030900011F061E001C06FEF772767FD7095872F12
:1030A000972F0E94643D5B016C012091D605309101
:1030B000D7054091D8055091D9050E94183EF62EAB
:1030C000072F182FE92E60919A0570919B0588278C
:1030D00077FD8095982F0E94643D2F2D302F412F32
:1030E0005E2D0E94603C0E94313D70939B05609371
:1030F0009A058F2D902FA12FBE2D8093D6059093EA
:10310000D705A093D805B093D90560919605709125
:103110009705882777FD8095982F0E94643D2F2D75
:10312000302F412F5E2D0E94613C0E94313D4B01AA
:103130006091980570919905882777FD8095982F63
:103140000E94643D2F2D302F412F5E2D0E94613C47
:103150000E94313DEB01C601B5012091D2053091AD
:10316000D3054091D4055091D5050E94183EF62E06
:10317000072F182FE92E862F902FA12FBE2D809379
:10318000D2059093D305A093D405B093D505B4018F
:10319000882777FD8095982F0E94643D2F2D302F32
:1031A000412F5E2D0E94613C0E94313D7093970536
:1031B00060939605BE01882777FD8095982F0E9421
:1031C000643D2F2D302F412F5E2D0E94603C0E94C8
:1031D000313DE6E9F5E0738362836BC00E944B21C9
:1031E0007B018C016091960570919705882777FD8A
:1031F0008095982F0E94643DA80197010E94613C30
:103200000E94313D709397056093960560919805F3
:1032100070919905882777FD8095982F0E94643DCD
:10322000A80197010E94613C0E94313D709399056D
:103230006093980580913407C0919A05D0919B05C1
:10324000813031F5BE01882777FD8095982F0E9447
:10325000643DA80197010E94613C0E94313D70933A
:103260009B0560939A0560919C0570919D05882748
:1032700077FD8095982F0E94643DA80197010E94D8
:10328000613C0E94313D70939D0560939C0511C087
:10329000BE01882777FD8095982F0E94643DA80184
:1032A00097010E94613C0E94313D70939B056093A1
:1032B0009A051091340780912607909127071130C5
:1032C00049F52091960530919705281B390B3093CD
:1032D00097052093960520919A0530919B05281B10
:1032E000390B30939B0520939A05209198053091D6
:1032F0009905280F391F309399052093980520913F
:103300009C0530919D05280F391F30939D05209312
:103310009C0535C00091F407202F332727FD3095F9
:10332000289FB001299F700D389F700D11246A5D90
:103330007D4F882777FD8095982F0E94643D6B0113
:103340007C01602F772767FD7095872F972F0E944C
:10335000643D2091DA053091DB054091DC05509108
:10336000DD050E94183E9B01AC01C701B6010E9419
:10337000603C0E94313D70939D0560939C05809157
:103380009605909197058436910534F484E690E093
:103390009093970580939605809198059091990553
:1033A0008436910534F484E690E0909399058093F7
:1033B000980580919A0590919B058436910534F487
:1033C00084E690E090939B0580939A05113069F410
:1033D00080919C0590919D058436910534F484E696
:1033E00090E090939D0580939C0580912F078F3FDF
:1033F000F9F489E40E9410118EE896E06CE00E94D6
:10340000171185E696E064E00E9417118BE197E0C2
:1034100064E00E9417118AE896E064E00E941711A8
:1034200086E995E068E00E94171185E40E9410117A
:1034300080912508807F79F00E94AD148091090861
:10344000813049F40E94FD280E94640E8091160785
:103450008160809316070E94FD288091B806813014
:1034600021F41092340610923306DF91CF911F9110
:103470000F91FF90EF90DF90CF90BF90AF909F9013
:103480008F907F906F905F904F903F902F90089516
:10349000109232060E94391210926505109216079A
:1034A00081E080936906809331058EE896E09093E1
:1034B000380880933708109229088091850090E0A1
:1034C00090931A07809319070E949E1280913307E8
:1034D000813011F40E9498120E94553C0E94972559
:1034E0000E94CF14FDCF8F929F92AF92BF92CF9246
:1034F000DF92EF92FF920F931F93DF93CF93CDB79D
:10350000DEB72E970FB6F894DEBF0FBECDBFC982CF
:10351000DA82EB82FC820D831E832F8338874987F2
:103520005A876B877C878D879E87CD8CDE8CEF8C4E
:10353000F8A009A1112707FD109569817A818827D4
:1035400077FD8095982F0E94643D9B01AC01C701D7
:10355000B6010E94183EF801EE0FFF1FE00FF11FA9
:10356000EE0FFF1FEE0FFF1FE050FF4F2081318154
:10357000428153810E94C93CF5016083718382833B
:103580009383C701B60124853585468557850E94FA
:10359000603C0E94313D4B01C701B60120E030E0A4
:1035A00040E050E40E94143E181654F0C701B601E2
:1035B00020E030E040E050EC0E94C53C87FF2DC089
:1035C0006D817E81882777FD8095982F0E94643DCC
:1035D0009B01AC01C701B6010E94183EF801EE0F35
:1035E000FF1FE00FF11FEE0FFF1FEE0FFF1FE05058
:1035F000FF4F24813581468157810E94C93C9B0140
:10360000AC01F50164817581868197810E94613CDE
:10361000F501648375838683978389859A85889E5F
:10362000B001899E700D989E700D1124882777FD3A
:103630008095982F0E94643DF801EE0FFF1FE00F68
:10364000F11FEE0FFF1FEE0FFF1FE050FF4F208511
:103650003185428553850E94C93CF5016087718799
:1036600082879387C486D586E686F786E480F580D0
:10367000068117816F817885882777FD8095982F3F
:103680000E94643D9B01AC01C801B7010E944E2518
:10369000F5016483758386839783E080F1800281DE
:1036A00013816B817C81882777FD8095982F0E94FC
:1036B000643D9B01AC01C801B7010E944E25F50194
:1036C0006083718382839383E084F1840285138510
:1036D0006B857C85882777FD8095982F0E94643DB7
:1036E0009B01AC01C801B7010E944E257B018C01F2
:1036F000F5016087718782879387608171818281FC
:10370000938124813581468157810E94613CA801C3
:1037100097010E94613C2E960FB6F894DEBF0FBE53
:10372000CDBFCF91DF911F910F91FF90EF90DF9070
:10373000CF90BF90AF909F908F90089580E090E0E1
:10374000DC018093D1069093D206A093D306B09368
:10375000D40680936A0590936B05A0936C05B09393
:103760006D058093E1069093E206A093E306B09383
:10377000E40680937A0590937B05A0937C05B09333
:103780007D058093F1069093F206A093F306B09323
:10379000F40680938A0590938B05A0938C05B093D3
:1037A0008D058093FD079093FE07A093FF07B093CC
:1037B000000808952F923F924F925F926F927F92EE
:1037C0008F929F92AF92BF92CF92DF92EF92FF9231
:1037D0000F931F93DF93CF9300D000D0CDB7DEB708
:1037E00060912E0670912F068091300690913106DF
:1037F0002AE037ED43EA5CE30E94183E69837A834E
:103800008B839C8360916C0670916D0680916E062F
:1038100090916F062AE037ED43EA5CE30E94183E80
:10382000F62E072F182FE92E80911B0790911C0769
:10383000A0911D07B0911E078091650690916606C4
:10384000A0916706B091680620901B0730901C0776
:1038500040901D0750901E07A0908606B0908706E6
:10386000C0908806D09089066091C9067091CA06FA
:103870008091CB069091CC062AE037ED43EA5CE3D9
:103880000E94183E3B014C016F2D702F812F9E2D01
:10389000A60195010E94183E2EED3EE144E05CE356
:1038A0000E94183E9B01AC01C401B3010E94603C20
:1038B0009B01AC01C201B1010E94613C9B01AC01C2
:1038C00020931B0730931C0740931D0750931E073E
:1038D000A0906506B0906606C0906706D090680616
:1038E0002091C5063091C6064091C7065091C80682
:1038F0006F2D702F812F9E2D0E94183E2EED3EE1E0
:1039000044E05CE30E94183E9B01AC01B981AA81AE
:103910001B810C816B2F7A2F812F902F0E94613C8D
:103920009B01AC01C601B5010E94613C9B01AC0149
:1039300020936506309366064093670650936806A9
:103940000F900F900F900F90CF91DF911F910F91DB
:10395000FF90EF90DF90CF90BF90AF909F908F90AF
:103960007F906F905F904F903F902F90089580E0F0
:1039700090E0DC018093860690938706A0938806EA
:10398000B09389068093C5069093C606A093C70698
:10399000B093C8068093650690936606A093670669
:1039A000B093680680931B0790931C07A0931D0794
:1039B000B0931E0708952F923F924F925F926F929D
:1039C0007F928F929F92AF92BF92CF92DF92EF92AF
:1039D000FF920F931F93DF93CF93CDB7DEB7699715
:1039E0000FB6F894DEBF0FBECDBFE0909606F09004
:1039F0009706009198061091990660916C06709157
:103A00006D0680916E0690916F0620E030E0A9016E
:103A10000E94183EA80197010E94613C60936C06C9
:103A200070936D0680936E0690936F068091920658
:103A300090919306A0919406B091950680932E06DE
:103A400090932F06A0933006B093310620918E06F6
:103A500030918F0640919006509191062093C906AF
:103A60003093CA064093CB065093CC0600D000D0CA
:103A70000F92EDB7FEB781839283A383B48315823F
:103A8000C0903D07D0903E07E0903F07F090400780
:103A9000009141071091420720914307309144075C
:103AA000409145075091460760914707709148073C
:103AB0008091490790914A07EDECAE2EE6E0BE2ECC
:103AC0000E94731A0E94313D7093850660938406AC
:103AD0008091C9069091CA06A091CB06B091CC0600
:103AE000EDB7FEB781839283A383B4831582C09020
:103AF0004B07D0904C07E0904D07F0904E07009197
:103B00004F07109150072091510730915207409173
:103B10005307509154076091550770915607809153
:103B2000570790915807BDEDAB2EB6E0BB2E0E9413
:103B3000731A0E94313D7093B9056093B8050DB7B3
:103B40001EB70F5F1F4F6091DA057091DB05809102
:103B5000DC059091DD0520E030E040E05FE30E946D
:103B6000183E9B01AC0160916C0670916D068091CE
:103B70006E0690916F060E94603CD8016D937D9314
:103B80008D939C93139714961C92C0905907D090D4
:103B90005A07E0905B07F0905C0700915D07109179
:103BA0005E0720915F073091600740916107509157
:103BB0006207609163077091640780916507909137
:103BC0006607ADEEAA2EA6E0BA2E0E94731A0E94D6
:103BD000313D7093270760932607E0909A06F09096
:103BE0009B0600919C0610919D0617FB109517F9F6
:103BF00010956091A007772767FD7095872F972F05
:103C00000E94643D9B01AC01C801B7010E94603C69
:103C1000698B7D8B8E8B9F8BE0909E06F0909F062C
:103C20000091A0061091A10617FB109517F91095A9
:103C30006091A107772767FD7095872F972F0E94C6
:103C4000643D9B01AC01C801B7010E94603C562E47
:103C5000372E282E988F6091490770914A07882740
:103C600077FD8095982F0E94643D20E030E04AE780
:103C700054E40E94C93CE62E072F182F992E60E0CD
:103C800070E080E89FE32E2D302F412F592D0E94A8
:103C9000603C462E872E782E692E20918606309124
:103CA000870640918806509189066E2D702F812FCE
:103CB000992D0E94183E5B016C019301642D782DB3
:103CC000832F922FB989AD89FE88EF89E98F2B2F39
:103CD0003A2F4F2D5E2F0E94183E9B01AC01C6016A
:103CE000B5010E94613C9B01AC0120938606309394
:103CF000870640938806509389062091C506309127
:103D0000C6064091C7065091C8066E2D702F812FB0
:103D1000992D0E94183E7B018C019301642D782D12
:103D2000832F922F988C252D332D422D592D0E94B3
:103D3000183E9B01AC01C801B7010E94613C9B0188
:103D4000AC012093C5063093C6064093C706509336
:103D5000C8068091BD069091BE062091190730914A
:103D60001A07AC01421B530B5093240740932307BF
:103D700090931A0780931907609123077091240785
:103D800080E090E00E94623D6093E9057093EA054F
:103D90008093EB059093EC050F900F900F900F9090
:103DA0000F900E94DA1B60918606709187068091C1
:103DB00088069091890620E030E046E153E40E94B5
:103DC000C53C87FFAFC060918606709187068091E1
:103DD00088069091890620E030E046E153EC0E948D
:103DE000143E18160CF09EC06091C5067091C60670
:103DF0008091C7069091C80620E030E046E153E488
:103E00000E94C53C87FF8EC06091C5067091C606B2
:103E10008091C7069091C80620E030E046E153EC5F
:103E20000E94143E18160CF07DC0609173077091CB
:103E30007407882777FD8095982F0E94643D20E0C5
:103E400030E04AE754E40E94C93CE62E072F182FC1
:103E5000992E60E070E080E89FE32E2D302F412FF7
:103E6000592D0E94603C462E872E782E692E209177
:103E70001B0730911C0740911D0750911E076E2DA6
:103E8000702F812F992D0E94183E5B016C019301C8
:103E9000642D782D832F922F588D598F252D332DFA
:103EA000422D0E94183E9B01AC01C601B5010E9443
:103EB000613C9B01AC0120931B0730931C0740938E
:103EC0001D0750931E0720916506309166064091AC
:103ED0006706509168066E2D702F812F992D0E94D4
:103EE000183E7B018C019301642D782D832F922F36
:103EF000B989AD89AE889F882B2F3A2F4A2D592D2D
:103F00000E94183E9B01AC01C801B7010E94613CB0
:103F10009B01AC01209365063093660640936706CB
:103F200050936806E0906506F0906606009167067B
:103F30001091680680911B0790911C07A0911D07A6
:103F4000B0911E07898B9A8BAB8BBC8B8091350708
:103F50008823E9F4909136079130C9F480913407B1
:103F60008130F1F483E393E3A3E3BFEB89879A877E
:103F7000AB87BC8783E393E3A3E3BFE38D879E878F
:103F8000AF87B88B8D839E83AF83B88740C09091F5
:103F90003607891789F08130F1F5992321F13BC06B
:103FA00080E090E0DC0189879A87AB87BC8780E05E
:103FB00090E0A0E8BFEB0BC080E090E0DC018987D7
:103FC0009A87AB87BC8780E090E0A0E8BFE38D874D
:103FD0009E87AF87B88B8D839E83AF83B88780E041
:103FE00090E0DC0114C083E393E3A3E3BFE389879C
:103FF0009A87AB87BC878D879E87AF87B88B8D8369
:104000009E83AF83B88783E393E3A3E3BFEB898306
:104010009A83AB83BC83A090D205B090D305C090A7
:10402000D405D090D5054090D6055090D705609026
:10403000D8057090D905C601B50129813A814B8117
:104040005C810E94183E9B01AC01C801B7010E942F
:10405000603C7B018C01C301B2012D813E814F8107
:1040600058850E94183E9B01AC01C801B7010E940F
:10407000603C162F972EE82E092F862F992DAE2DF6
:10408000B02F80934B0690934C06A0934D06B093AF
:104090004E06C601B5012D853E854F8558890E9483
:1040A000183E9B01AC0169897A898B899C890E94A1
:1040B000603C5B016C01C301B20129853A854B85E7
:1040C0005C850E94183E9B01AC01C601B5010E94AF
:1040D000603C6093610570936205809363059093E3
:1040E00064058091690680FD98C060918406709196
:1040F0008506882777FD8095982F0E94643D2B01C7
:104100003C0100D000D00F92812F992DAE2DB02F01
:10411000EDB7FEB781839283A383B48399249394EC
:104120009582C0906707D0906807E0906907F0908B
:104130006A0700916B0710916C0720916D07309111
:104140006E0740916F0750917007609171077091F1
:1041500072078091730790917407F6E6AF2EF5E031
:10416000BF2E0E94731A9B01AC01C301B2010E94D1
:10417000613C0E94313D7093850660938406609196
:10418000B8057091B905882777FD8095982F0E9412
:10419000643D2B013C018091610590916205A091E5
:1041A0006305B0916405EDB7FEB781839283A38365
:1041B000B4839582C0907507D0907607E09077071A
:1041C000F09078070091790710917A0720917B078A
:1041D00030917C0740917D0750917E0760917F0769
:1041E000709180078091810790918207E6E7AE2E5B
:1041F000E5E0BE2E0E94731A9B01AC01C301B2011F
:104200000E94613C0E94313D7093B9056093B805EE
:104210000F900F900F900F900F908091690683FF81
:1042200021C040916C0650916D0660916E067091B0
:104230006F0682E00E94AE2240912E0650912F061A
:10424000609130067091310680E00E94AE2240916C
:10425000C9065091CA066091CB067091CC0681E0E8
:104260000E94AE2269960FB6F894DEBF0FBECDBF96
:10427000CF91DF911F910F91FF90EF90DF90CF9042
:10428000BF90AF909F908F907F906F905F904F9076
:104290003F902F900895AF92BF92CF92DF92EF920E
:1042A000FF920F931F938091A2069091A306A09175
:1042B000A406B091A50600D000D00F92B058EDB77B
:1042C000FEB781839283A383B4831582C090830752
:1042D000D0908407E0908507F090860700918707CB
:1042E000109188072091890730918A0740918B07A8
:1042F00050918C0760918D0770918E0780918F0788
:1043000090919007A6E8AA2EA5E0BA2E0E94731AF3
:104310006093B9067093BA068093BB069093BC066F
:104320000F900F900F900F900F9080912F078F3F5D
:1043300009F0F7C080913A0780FFF3C080916906C9
:10434000843009F0EEC0489AF8946091F2057091BB
:10435000F30580E090E00E94623D7B018C0178943F
:104360007F2D912F20E030E849E054E40E94C53CC5
:1043700087FFB7C080913705882329F580913505DF
:10438000909136058330910534F40196909336056B
:1043900080933505CCC06E2D7F2D802F912F0E94EC
:1043A000363D709318076093170780E090E0DC01BA
:1043B0008093FD079093FE07A093FF07B09300083A
:1043C00081E080933705609117077091180780E0AE
:1043D00090E00E94623D2E2D3F2D402F512F0E94D4
:1043E000603CF62E072F182FE92E862F902FA12F35
:1043F000BE2D8093FD069093FE06A093FF06B0931A
:1044000000076F2D702F812F9E2D20E030E048E4B3
:1044100052E40E94C53C87FF5FC06F2D702F812F33
:104420009E2D20E030E048E452EC0E94143E181625
:104430000CF052C01092320500D000D00F928F2D98
:10444000902FA12FBE2DEDB7FEB781839283A3835A
:10445000B4831582C0909107D0909207E0909307A3
:10446000F090940700919507109196072091970777
:10447000309198074091990750919A0760919B0756
:1044800070919C0780919D0790919E07F9EFAF2E48
:10449000F7E0BF2E0E94731A0E94313D7B018C0110
:1044A00070933605609335050F900F900F900F9025
:1044B0000F906091FD067091FE068091FF0690912D
:1044C000000720E030E0A9010E94C53C882321F4C8
:1044D000F0923405E0923305609135057091360510
:1044E00004C06091330570913405882777FD80956D
:1044F000982F0E94643D9B01AC016091B9067091B8
:10450000BA068091BB069091BC060E94613C609304
:10451000B9067093BA068093BB069093BC06489880
:1045200006C010923605109235051092370570912D
:10453000B9066091BA069091BB068091BC06AB01AA
:104540009C01652F742F832F922F1F910F91FF9045
:10455000EF90DF90CF90BF90AF9008959F92AF9271
:10456000BF92CF92DF92EF92FF920F931F93CF9360
:10457000DF93C82ECB01BA0120E030E040E05FE3DA
:104580000E94183E8B01F82EE92E9701712F832F80
:10459000922F0E94F93ECC2DD0E06E01CC0CDD1C98
:1045A000F601B3E0EE0FFF1FBA95E1F7EC19FD0934
:1045B000E65DF84FA58CB68C8A159B0594F497019F
:1045C000602F712F832F922F0E94313DF601E85CFE
:1045D000FA4F71836083E601C25CDA4F79836883A6
:1045E00072C1992493949701602F712F832F922F7A
:1045F00020E030E0A9010E94143E87FF02C0992408
:1046000007C0F601E85CFA4F8081918197FF18C0DE
:104610009701602F712F832F9E2D20E030E0A9019C
:104620000E94C53C18160CF45BC0FE01EE0FFF1F84
:10463000E85CFA4F80819181181619060CF450C07D
:104640009701602F712F832F9E2D0E94313D262FC1
:10465000372F37FF03C0309521953F4FFE01EE0FF6
:10466000FF1FE85CFA4F8081918197FF03C090950E
:1046700081959F4F281B390BA216B306ACF4CE01CF
:10468000880F991FFC0153E0EE0FFF1F5A95E1F7C9
:10469000E81BF90BE65DF84F838994898436910510
:1046A0000CF04BC0019647C0B094A194B108B394EC
:1046B0002A153B050CF041C0CE01880F991FFC0163
:1046C00033E0EE0FFF1F3A95E1F7E81BF90BE65DCB
:1046D000F84F83899489181619067CF501972BC029
:1046E0009701602F712F832F9E2D20E030E0A901CC
:1046F0000E94C53C87FD0CC09701602F712F832F4E
:104700009E2D20E030E0A9010E94143E1816ACF462
:10471000CE01880F991FFC01B3E0EE0FFF1FBA9581
:10472000E1F7E81BF90BE65DF84F838994891816C9
:1047300019061CF40297948B838B992049F0FE0193
:10474000EE0FFF1FE25CFA4F8081918197FF18C046
:104750009701602F712F832F9E2D20E030E0A9015B
:104760000E94C53C18160CF44DC0FE01EE0FFF1F51
:10477000E25CFA4F80819181181619060CF442C050
:104780009701602F712F832F9E2D0E94313D262F80
:10479000372F37FF03C0309521953F4FFE01EE0FB5
:1047A000FF1FE25CFA4F8081918197FF03C09095D3
:1047B00081959F4F281B390BCE01880F991FFC0153
:1047C00043E0EE0FFF1F4A95E1F7E81BF90BE65DAA
:1047D000F84F858D968D821793073CF48789908DCD
:1047E0008E319105E4F5019638C0909581959F4FE3
:1047F00028173907A4F58789908D181619067CF5B6
:1048000001972BC09701602F712F832F9E2D20E0E1
:1048100030E0A9010E94C53C87FD0CC09701602FC4
:10482000712F832F9E2D20E030E0A9010E94143EBD
:104830001816ACF4CE01880F991FFC0123E0EE0F8F
:10484000FF1F2A95E1F7E81BF90BE65DF84F878912
:10485000908D823091051CF00297908F878B970185
:10486000602F712F832F9E2D0E94313D6B017C01A3
:104870008E01000F111FF801E85CFA4F80819181D1
:104880008C0D9D1D62E070E00E94E63E71836083A6
:10489000E801C25CDA4F6881798143E150E0649FAE
:1048A000C001659F900D749F900D11248C0D9D1D6E
:1048B00064E170E00E94E63E79836883F801E65B7C
:1048C000FA4FD182C082DF91CF911F910F91FF905B
:1048D000EF90DF90CF90BF90AF909F9008959F9200
:1048E000AF92BF92CF92DF92EF92FF920F931F93FE
:1048F000DF93CF93CDB7DEB728970FB6F894DEBF1E
:104900000FBECDBF69837A838B839C832D833E83C7
:104910004F8358870E94C93CD62EC72EB82EA92E89
:10492000E62EF72E082F192FA6019501652F742F5B
:10493000832F922F20E030E048EC52E40E94183E92
:104940000E94313D272F862F922F97FF03C090950D
:1049500081959F4F9C80991C9924991C84369105C0
:104960000CF03FC08B30910564F1A6019501652FD5
:104970007C2D832F9A2D29E23CE54FE85EE30E94CF
:10498000183ED601F5012B2F3C2D4F2F5A2D0E949A
:10499000183E20E030E040E85FE30E94613C7B018C
:1049A0008C01B601C501272F3C2D492F5A2DCA0174
:1049B000B9012E2D3F2D402F512F0E94C93C7B0164
:1049C0008C01888587FF4BC09920E9F56E2D7F2DDE
:1049D000802F912F20ED3FE049E450E40E94613C9C
:1049E0003CC0A6019501652F7C2D832F9A2DD60101
:1049F000F5012B2F3C2D4F2F5A2D0E94183E29E2F6
:104A00003CE54FE85EE30E94613C9B01AC01D601AE
:104A1000F5016B2F7C2D8F2F9A2D0E94C93C562FAC
:104A2000472F382F292F60ED7FE089EC9FE3DA01D3
:104A3000F9012B2F3A2F4F2F5E2F0E94603C7B01F4
:104A40008C01992061F06E2D7F2D802F912F20ED0C
:104A50003FE049E450E40E94603C7B018C016E2DF4
:104A60007F2D802F912F24E53DE34FE054E40E94F9
:104A7000183E0E94313DCB0128960FB6F894DEBF58
:104A80000FBECDBFCF91DF911F910F91FF90EF909F
:104A9000DF90CF90BF90AF909F900895AF92BF925C
:104AA000CF92DF92EF92FF920F931F93D62EC72ED5
:104AB000B82EA92E79018A01A6019501652F742FC0
:104AC000832F922FA80197010E94143E1816B4F06C
:104AD00017FB109517F91095A6019501652F742FF6
:104AE000832F922FA80197010E94C53C87FD06C025
:104AF0009601C501E32EF22E092F182F6E2D7F2D62
:104B0000802F912F1F910F91FF90EF90DF90CF900A
:104B1000BF90AF900895681779073CF07095619544
:104B20007F4F681779070CF4BC01CB0108956F9291
:104B30007F928F929F92AF92BF92CF92DF92EF922D
:104B4000FF920F931F93CF93DF9360913B077727DB
:104B500067FD7095872F972F0E94643D20E030E01D
:104B600048EC52E40E94C93C162F072FF82EE92E7C
:104B700060913C0770E080E090E00E94623D20E0A0
:104B800030E048EC52E40E94C93CD801F7012B2FD9
:104B90003A2F4F2F5E2F0E94603C962E872E782E44
:104BA000692EC0E0D0E0CC9FB001CD9F700DDC9F9E
:104BB000700D1124882777FD8095982F0E94643D01
:104BC00020E030E048EC52E40E94C93CD801F701F3
:104BD0002B2F302F4F2F5E2D0E94183E5B016C0152
:104BE000BE01882777FD8095982F0E94643DD401EF
:104BF000F3012B2F382D4F2F562D0E94183E20E009
:104C000030E040E251E40E94C93C9B01AC01C60186
:104C1000B5010E94613C9B01AC01FE01EE0FFF1F3C
:104C2000EE0FFF1FEE5FF94F2083318342835383E2
:104C30002196CB30D10509F0B6CFDF91CF911F91EE
:104C40000F91FF90EF90DF90CF90BF90AF909F902B
:104C50008F907F906F9008952F923F924F925F9226
:104C60006F927F928F929F92AF92BF92CF92DF927C
:104C7000FF920F931F93CF93DF93EC018C0197FF6B
:104C800004C000271127081B190BC80167E370E057
:104C90000E94E63E862F992787FD9095FC01EE0F36
:104CA000FF1FEE0FFF1FEE5FF94FA080B180C280A3
:104CB000D3806AE070E00E948B25F82EE82FFF2752
:104CC000E7FDF0958A300CF040C0EE0FFF1FEE0FAD
:104CD000FF1FEA5FF94F6081718182819381A60194
:104CE00095010E94603C20E030E048E452E40E94DC
:104CF000C93C1B012C01B801882777FD8095982FAE
:104D00000E94643D3B014C016F2D772767FD709534
:104D1000872F972F0E94643D20E030E048E452E462
:104D20000E94183E9B01AC01C401B3010E94603C8B
:104D30009B01AC01C201B1010E94183E9B01AC0174
:104D4000C601B5010E94613C0AC0EE0FFF1FEE0FC5
:104D5000FF1FEE5FF94F6081718182819381D7FDE2
:104D6000905820E030E04AEF53E40E94183E6093F0
:104D70001F07709320078093210790932207DF91EC
:104D8000CF911F910F91FF90DF90CF90BF90AF9088
:104D90009F908F907F906F905F904F903F902F905B
:104DA00008956F927F928F929F92AF92BF92CF920F
:104DB000DF92EF92FF920F931F93FC0120813181CC
:104DC00042815381E480F58006811781A084B184FB
:104DD000C284D384CA01B9010E94183E3B014C0130
:104DE000C801B701A80197010E94183E9B01AC01C0
:104DF000C401B3010E94613C7B018C01C601B50175
:104E0000A60195010E94183E9B01AC01C801B701A3
:104E10000E94613C262F372F482F592F209354058D
:104E20003093550540935605509357050E947F3E99
:104E30001F910F91FF90EF90DF90CF90BF90AF90B8
:104E40009F908F907F906F900895EF92FF920F93B5
:104E50001F93CF93DF93EC010E94D1267B018C013D
:104E600060935005709351058093520590935305BC
:104E7000688179818A819B81A80197010E94C93C40
:104E8000688379838A839B836C817D818E819F81F6
:104E9000A80197010E94C93C6C837D838E839F8308
:104EA000688579858A859B85A80197010E94C93C00
:104EB000688779878A879B87DF91CF911F910F91B0
:104EC000FF90EF900895CF92DF92EF92FF920F93B1
:104ED0001F93CF93DF93EC018B01688179818A81E5
:104EE0009B81F80120813181428153810E94183ECB
:104EF0006B017C016C817D818E819F81F801248111
:104F00003581468157810E94183E9B01AC01C70143
:104F1000B6010E94613C6B017C01688579858A85B8
:104F20009B85F80120853185428553850E94183E76
:104F30009B01AC01C701B6010E94613CDF91CF919A
:104F40001F910F91FF90EF90DF90CF900895AF9257
:104F5000BF92CF92DF92EF92FF920F931F93CF9366
:104F6000DF93EC018B017A016C817D818E819F81C1
:104F7000F80120853185428553850E94183E5B01EA
:104F80006C01688579858A859B85F8012481358146
:104F9000468157810E94183E9B01AC01C601B501B4
:104FA0000E94603CF70160837183828393836885EC
:104FB00079858A859B85F8012081318142815381E1
:104FC0000E94183E5B016C01688179818A819B8116
:104FD000F80120853185428553850E94183E9B014A
:104FE000AC01C601B5010E94603CF7016483758382
:104FF00086839783688179818A819B81F8012481E6
:105000003581468157810E94183E5B016C016C819D
:105010007D818E819F81F801208131814281538180
:105020000E94183E9B01AC01C601B5010E94603C84
:10503000F7016087718782879387DF91CF911F91F6
:105040000F91FF90EF90DF90CF90BF90AF900895B9
:10505000CF92DF92EF92FF920F931F93CF93DF9344
:105060007B018C01EA016901288139814A815B81D8
:105070000E94183EF6016083718382839383C80186
:10508000B7012C813D814E815F810E94183EF6015F
:105090006483758386839783C801B7012885398522
:1050A0004A855B850E94183EF6016087718782877A
:1050B0009387DF91CF911F910F91FF90EF90DF9039
:1050C000CF900895EF92FF920F931F93CF93DF93AA
:1050D000EC018B017A01688179818A819B81F801D9
:1050E00020813181428153810E94613CF7016083BC
:1050F0007183828393836C817D818E819F81F8018E
:1051000024813581468157810E94613CF701648387
:10511000758386839783688579858A859B85F80161
:1051200020853185428553850E94613CF701608767
:10513000718782879387DF91CF911F910F91FF90A5
:10514000EF900895EF92FF920F931F93DC01FB0104
:1051500020E030E040E85FE32083318342835383E3
:1051600018966D917D918D919C911B9790586483B9
:1051700075838683978314966D917D918D919C9113
:105180001797608771878287938718966D917D91B5
:105190008D919C911B976487758786879787208B55
:1051A000318B428B538B6D917D918D919C91139797
:1051B0009058648B758B868B978B1496ED90FD9031
:1051C0000D911C91179717FB109517F91095E08E0C
:1051D000F18E028F138F8D919D910D90BC91A02D1A
:1051E000848F958FA68FB78F20A331A342A353A39B
:1051F0001F910F91FF90EF900895F8948091CF0543
:105200009091D00590932907809328077894209156
:1052100028073091290780914F0690915006281752
:10522000390738F0281B390B3093E7052093E60542
:1052300008C080959095820F931F9093E705809307
:10524000E6054091E6055091E70589E991E0489F20
:105250009001499F300D589F300D112484EC99E046
:10526000821B930B0DC01092B200853691053CF065
:105270002091B2002832E0F38055904001C00197A0
:105280009093480880934708809147089091480878
:105290001816190644F3809158058F5F80935805BE
:1052A000809196059091970597FF05C010924A0846
:1052B000109249080AC024E08F37920714F08EE755
:1052C00094E090934A0880934908809198059091C2
:1052D000990597FF05C010924508109244080AC02E
:1052E00024E08F37920714F08EE794E090934508FE
:1052F0008093440880919A0590919B0597FF05C083
:1053000010924E0810924D080AC024E08F37920781
:1053100014F08EE794E090934E0880934D088091AE
:105320009C0590919D0597FF05C01092430810922F
:1053300042080AC024E08F37920714F08EE794E009
:105340009093430880934208469A449A429A8091E7
:105350003407813011F4439A09C0823039F48091C6
:105360005805843019F4439A1092580580913807F3
:1053700090E0805E9C4F0DC01092B2008536910582
:105380003CF02091B2002D32E0F38055904001C0F6
:10539000019790934808809347088091470890911F
:1053A00048081816190644F380E090E02091490857
:1053B00030914A088217930708F0469820914408D4
:1053C000309145088217930708F0449820914D08C2
:1053D00030914E088217930708F0429820914208B6
:1053E000309143088217930708F04398029624E00F
:1053F00082389207D9F6F8948091CF059091D00524
:105400009093500680934F067894089520918400DD
:105410003091850090E0880F991FFC01E15AF74F09
:1054200040815181DC01A251BA4F4217530748F421
:10543000209184003091850080819181281B390B57
:105440000AC020813181809184009091850020954F
:105450003095280F391F11963C932E930895209173
:1054600084003091850090E00596880F991FFC011B
:10547000E15AF74F40815181DC01A251BA4F4217E6
:10548000530740F480819181281B390B11963C937E
:105490002E9308954081518140955095420F531F9E
:1054A00011965C934E930895209880912F0788233E
:1054B000F1F41092E805529850985398229885E19B
:1054C0008093690087E08DBB8CBB809168008A6007
:1054D0008093680080916C00816080936C00809163
:1054E00073008160809373008BB38A608BBB81E013
:1054F0008093E8053D980D983F980C98809168003E
:1055000087608093680080916B00806380936B005C
:1055100080916C00816080936C0080916D00806A46
:1055200080936D008BB387608BBB80912508816071
:105530008093250880912508806180932508F89440
:105540008091C3069091C4069093560880935508A5
:105550008091C3069091C406909358088093570891
:1055600078948091530890915408909354088093B4
:10557000530880914F089091500890935008809361
:105580004F080895F89490E0FC01EE0FFF1FEE0F16
:10559000FF1FE80FF91FE60FF11DEE0FFF1FE2518D
:1055A000FA4F208131817894C9010895F89490E0F0
:1055B00070E09C01220F331F220F331F280F391F69
:1055C000D901A60FB71FFD01EE0FFF1FE251FA4FE1
:1055D000808191817894DC96EAE2F7E0AA0FBB1F04
:1055E000AE0FBF1F4D915C911197841B950BE20F7D
:1055F000F31FE60FF71FE054FF4F6081772767FD29
:1056000070950E94E63ECB010895F894882311F529
:105610004091C3065091C406609155087091560898
:10562000461B570B4531510520F0809125088160BC
:1056300034C04091C3065091C406609157087091E0
:105640005808461B570B4531510568F180912508D4
:10565000826023C0813039F54091C3065091C40661
:105660006091530870915408461B570B4531510502
:1056700020F080912508806110C04091C3065091B0
:10568000C40660914F0870915008461B570B453176
:10569000510548F080912508806280932508789410
:1056A00020E030E041C0282F30E0C901880F991F69
:1056B000A901B3E0440F551FBA95E1F7840F951F78
:1056C000FC01E251FA4F4681578150935A084093AA
:1056D000590878944091590850915A088454984F29
:1056E000FC0180819181481B590B50935A084093CB
:1056F00059088091590890915A08F901EE0FFF1F3F
:10570000EE0FFF1FE20FF31FE351F84F6081772781
:1057100067FD70950E94E63E70935A0860935908A1
:105720002091590830915A08C9010895CF92DF920B
:10573000EF92FF920F931F93CF93DF93C0E0D0E0DF
:105740002DC00330110539F48C2F0E94052BF70171
:10575000918380831AC08C2F602F0E94D62AF60175
:10576000E00FF11FEE0FFF1FEF5AF94F9183808377
:10577000808191818F30910544F4808191813FEF48
:10578000823F930714F0118210820F5F1F4F053084
:105790001105B9F62196C230D105C9F000E010E03C
:1057A0006E01CC0CDD1CCC0CDD1CCC0EDD1E7E0194
:1057B000EE0CFF1CCE0153E0880F991F5A95E1F7BC
:1057C000E80EF91E87E596E0E80EF91EBACFDF91E4
:1057D000CF911F910F91FF90EF90DF90CF900895A0
:1057E00060E776E0282F30E0F901EE0FFF1F93E02D
:1057F000220F331F9A95E1F7E20FF31FE60FF71F11
:105800001182108241E057E0282F30E0F901EE0FBD
:10581000FF1FA3E0220F331FAA95E1F7E20FF31F4A
:10582000E40FF51F2EEF3FEF31832083A82FB0E068
:10583000FD01EE0FFF1F93E0AA0FBB1F9A95E1F742
:10584000EA0FFB1FE60FF71F13821282A82FB0E0AA
:10585000FD01EE0FFF1F93E0AA0FBB1F9A95E1F722
:10586000EA0FFB1FE40FF51F33832283A82FB0E05C
:10587000FD01EE0FFF1F93E0AA0FBB1F9A95E1F702
:10588000EA0FFB1FE60FF71F15821482A82FB0E066
:10589000FD01EE0FFF1F93E0AA0FBB1F9A95E1F7E2
:1058A000EA0FFB1FE40FF51F35832483A82FB0E018
:1058B000FD01EE0FFF1F93E0AA0FBB1F9A95E1F7C2
:1058C000EA0FFB1FE60FF71F17821682A82FB0E022
:1058D000FD01EE0FFF1F93E0AA0FBB1F9A95E1F7A2
:1058E000EA0FFB1FE40FF51F37832683A82FB0E0D4
:1058F000FD01EE0FFF1F93E0AA0FBB1F9A95E1F782
:10590000EA0FFB1FE60FF71F11861086682F70E065
:10591000FB01EE0FFF1FB3E0660F771FBA95E1F7AB
:10592000E60FF71FE40FF51F318720870895DF92F8
:10593000EF92FF920F931F93CF93DF93D82E282FD0
:1059400030E08901000F111F73E0220F331F7A9599
:10595000E1F7020F131F0059194F282F30E0E9011A
:10596000CC0FDD1F53E0220F331F5A95E1F7C20F12
:10597000D31FCF5FD84FEE24FF248D2D6E2D0E94B4
:10598000C22A9C01009781F0F801808191818217E1
:10599000930718F43183208307C0888199812817E1
:1059A000390710F4398328830894E11CF11C0E5F39
:1059B0001F4F2296F5E0EF16F104F9F6DF91CF9133
:1059C0001F910F91FF90EF90DF900895EF92FF925B
:1059D0000F931F93DF93CF9300D000D000D0CDB7AB
:1059E000DEB788E66BE3AE014F5F5F4F26E00E94B3
:1059F000890F998180E00A8110E0082B192B23E0A0
:105A0000159507952A95E1F79D8180E0EE80FF24AA
:105A1000E82AF92A93E0F594E7949A95E1F79B81B7
:105A200080E06C8170E0682B792B83E07595679539
:105A30008A95E1F7882777FD8095982F0E94643D2D
:105A400060939E0670939F068093A0069093A10694
:105A5000B801882777FD8095982F0E94643D609358
:105A60009A0670939B0680939C0690939D06B701BF
:105A7000882777FD8095982F0E94643D6093A20649
:105A80007093A3068093A4069093A50626960FB65E
:105A9000F894DEBF0FBECDBFCF91DF911F910F9164
:105AA000FF90EF900895EF92FF920F931F93DF9373
:105AB000CF9300D000D000D0CDB7DEB788E663E446
:105AC000AE014F5F5F4F26E00E94890F998180E011
:105AD0000A8110E0082B192B54E0159507955A956B
