:100000000C94780B0C94790A0C943B0A0C94E80A33
:100010000C94950B0C943C0B0C94A2090C94B70A0D
:100020000C94950B0C94950B0C94950B0C9453100D
:100030000C94950B0C94950B0C94950B0C943C1014
:100040000C94950B0C94950B0C9449090C94950BFE
:100050000C94950B0C94950B0C94950B0C94950BA0
:100060000C94F72B0C94950B0C94950B0C94950B0E
:100070000C9429110C94950B0C94950BA2A0C840DC
:10008000A6A42F248120AF00010204081020408084
:10009000FE910100FF000003000100000096000037
:1000A000325A2300C8000A009600FCFF2800F40121
:1000B0002300C8000A009600FCFF2800F40132006B
:1000C00064003200640000001400C8002800C8006A
:1000D0000500AA0000001400DE032800C800050087
:1000E000AA0000001400DE030F00230000001E0021
:1000F00000001400C8000F00190000000A000000F2
:100100000A000000000000000000000000000000E5
:1001100000000000000000000000000000000000DF
:1001200000000000000000000000000000000000CF
:1001300000000000000000000000000000000000BF
:1001400000000000000000000000000000000000AF
:1001500000000000000000000001010C109D1100D3
:10016000000000000000000000000000000000008F
:100170000000000000000000000000000000007C03
:1001800000FF33FF337C000000000000000000008F
:1001900000000000003C003C00000000003C003C6F
:1001A0000000000000000000000002101E901FF080
:1001B000037E021E1E901FF0037E021E0010000030
:1001C0000000007804FC0CCC0CFF3FFF3FCC0CCCB3
:1001D0000F880700000000000000303838381C3855
:1001E0000E00078003C001E038703838381C00006A
:1001F000000000001FB83FFC31C621E2373E1E1C44
:100200001C00360022000000000000000000002753
:10021000003F001F00000000000000000000000080
:100220000000000000F003FC0FFE1F073801200152
:10023000200000000000000000000000000120017C
:10024000200738FE1FFC0FF0030000000000000034
:10025000000000980CB80EE003F80FF80FE003B8A8
:100260000E980C000000000000000080018001805A
:1002700001F00FF00F8001800180010000000000FC
:100280000000000000000000B800F8007800000046
:1002900000000000000000000000008001800180DC
:1002A00001800180018001800180010000000000C8
:1002B0000000000000000000380038003800000096
:1002C0000000000000000000000018001C000E00EC
:1002D000078003C001E000700038001C000E000021
:1002E00000F807FE1F061E03338331C3306330332B
:1002F000301E18FE1FF8070000000000000C300C34
:10030000300E30FF3FFF3F00300030003000000073
:10031000001C301E38073C033E03378333C331E3F0
:100320003077303E301C3000000C0C0E1C0738C3F8
:1003300030C330C330C330C330E7397E1F3C0E00BA
:1003400000C003E003700338031C030E030703FF20
:100350003FFF3F0003000300003F0C7F1C63386336
:10036000306330633063306330E338C31F830F0082
:1003700000C00FF01FF839DC30CE30C730C330C3B7
:1003800030C339801F000F00000300030003000387
:1003900030033C030FC303F3003F000F00030000D2
:1003A00000000FBC1FFE39E730C330C330C330E755
:1003B00030FE39BC1F000F00003C007E00E730C358
:1003C00030C330C338C31CC30EE707FE03FC000074
:1003D00000000000000000701C701C701C00000079
:1003E000000000000000000000000000000000709D
:1003F0009C70FC707C000000000000000000000009
:10040000000000C000E001F00338071C0E0E1C07BE
:100410003803300000000000000000600660066045
:100420000660066006600660066006600600000062
:10043000000000033007380E1C1C0E3807F003E0E4
:1004400001C0000000000000001C001E00070003A7
:10045000008337C337E30077003E001C0000000034
:1004600000F80FFE1F0718F333FB371B36FB37FB73
:10047000370736FE03F80100000038003FE007FCB4
:10048000061F061F06FC06E007003F0038000000BC
:1004900000FF3FFF3FC330C330C330C330E730FEFF
:1004A00039BC1F000F00000000F003FC0F0E1C07FA
:1004B0003803300330033007380E1C0C0C000000EA
:1004C00000FF3FFF3F033003300330033007380E97
:1004D0001CFC0FF00300000000FF3FFF3FC330C3D0
:1004E00030C330C330C330C33003300330000000AA
:1004F00000FF3FFF3FC300C300C300C300C300C3EE
:10050000000300030000000000F003FC0F0E1C07B6
:10051000380330C330C330C330C73FC63F0000008C
:1005200000FF3FFF3FC000C000C000C000C000C0CF
:1005300000FF3FFF3F000000000000000003300309
:1005400030FF3FFF3F033003300000000000000099
:1005500000000E001E003800300030003000300077
:1005600038FF1FFF0700000000FF3FFF3FC000E013
:1005700001F00338071C0E0E1C0738033000000082
:1005800000FF3FFF3F0030003000300030003000FF
:10059000300030003000000000FF3FFF3F1E0078B9
:1005A00000E001E00178001E00FF3FFF3F00000077
:1005B00000FF3FFF3F0E003800F000C003000700BF
:1005C0001CFF3FFF3F00000000F003FC0F0E1C0764
:1005D000380330033007380E1CFC0FF00300000016
:1005E00000FF3FFF3F83018301830183018301C734
:1005F00001FE007C0000000000F003FC0F0E1C0751
:100600003803300336073E0E1CFC3FF03300000079
:1006100000FF3FFF3F8301830183038307830FC7ED
:100620001DFE387C30000000003C0C7E1CE738C307
:1006300030C330C330C330C7398E1F0C0F000000E9
:10064000000000030003000300FF3FFF3F0300031F
:10065000000300000000000000FF07FF1F0038003B
:10066000300030003000300038FF1FFF070000006E
:100670000007003F00F801C00F003E003EC00FF829
:10068000013F00070000000000FF3FFF3F001C008B
:1006900006800380030006001CFF3FFF3F000000B0
:1006A0000003300F3C1C0E3003E001E00130031C5E
:1006B0000E0F3C03300000000003000F003C00F070
:1006C00000C03FC03FF0003C000F000300000000EE
:1006D000000330033C033E0333C331E33033301FA8
:1006E000300F3003300000000000000000FF3FFF2B
:1006F0003F033003300330033000000000000000EF
:10070000000E001C0038007000E000C001800300F3
:1007100007000E001C00180000000000000330035A
:100720003003300330FF3FFF3F00000000000000B7
:10073000006000700038001C000E0007000E001C56
:1007400000380070006000000000C000C000C00061
:10075000C000C000C000C000C000C000C000C00693
:1007600008AD110000000000000000065F06000058
:10077000070300070300247E247E2400242B6A1232
:1007800000006313086463003649562050000007D8
:1007900003000000003E4100000000413E00000058
:1007A000083E1C3E080008083E08080000E0600003
:1007B0000000080808080800006060000000201021
:1007C000080402003E5149453E0000427F400000BF
:1007D0006251494946002249494936001814127F9E
:1007E00010002F49494931003C4A49493000017104
:1007F00009050300364949493600064949291E00C2
:10080000006C6C00000000EC6C0000000814224139
:1008100000002424242424000041221408000201A2
:10082000590906003E415D551E007E1111117E00E2
:100830007F49494936003E41414122007F414141C3
:100840003E007F49494941007F09090901003E41B5
:1008500049497A007F0808087F0000417F41000075
:10086000304040403F007F08142241007F4040401C
:1008700040007F0204027F007F0204087F003E41A7
:1008800041413E007F09090906003E4151215E00B9
:100890007F090919660026494949320001017F0193
:1008A00001003F4040403F001F2040201F003F40CC
:1008B0003C403F00631408146300070870080700F9
:1008C000714945430000007F4141000002040810C7
:1008D00020000041417F000004020102048080806A
:1008E00080808000000307000000205454547800EA
:1008F0007F44444438003844444428003844444445
:100900007F00385454540800087E0909000018A4D8
:10091000A4A47C007F040478000000007D40000057
:100920004080847D00007F102844000000007F404C
:1009300000007C04180478007C040478000038442B
:1009400044443800FC444444380038444444FC00E7
:10095000447844040800085454542000043E4424BD
:1009600000003C40207C00001C2040201C003C601B
:1009700030603C006C10106C00009CA0603C0000DB
:100980006454544C0000083E4141000000007700D0
:1009900000000041413E08000201020100003C2627
:1009A00023263C5F075B01080830383C3E3E3C385C
:1009B000300808060E1E3E3E1E0E0609093800FECF
:1009C00000FE00FF01FF01FF01FE00FE00380009EC
:1009D00003000000000202020702050302070202F0
:1009E000024040000000000103030303030303036C
:1009F00003030303030303070F1F1F3F3F7F7F7F93
:100A00007F7F3F1F0F00030303030303030303035D
:100A1000030303030303070707070707070303018C
:100A200000000000000000FFFF00000000000000C8
:100A30000000011F7FFFFFFFFFFFE7C3E7FFFFFF8E
:100A4000FFFFFFFEF0000000000000000000070FA5
:100A50003F7FFFFFFFFCFCFFFFFFFFFFFFFFFF7C6F
:100A6000C3000000000000FFFF00000000000000C5
:100A7000000000F0F8FCFEFEFEFEFCFCFDFBF7F7BC
:100A8000EFDF0B00000000000000010303FFFFFF89
:100A9000FFFFFFFFFF7F7FFFFFFFFEFCF8E0807F8F
:100AA000FF000000000000FFFF0000000000000049
:100AB00000000000000000000000000080FDFFFFBB
:100AC000FFFFFF7F1F3F7F7FFEFEFCF8F8F0F0E0A6
:100AD000C0C0E0C0C0C0C08080000000000000FFB7
:100AE000FF000000000000FFFF00000101030307FA
:100AF00007070F0707070303070F0F3F7FFFFFFEDF
:100B0000FEFFFFFFFFFFAF0300000000000000003A
:100B1000000000000000000000000000000000FFD6
:100B2000FF000000000000FFFF3F7FFFFFFCF8FC1C
:100B3000FFFFFFFFFFFFFFFFE8C0C0808000000055
:100B40000080F9FFFFFFFFFF7F7F7F7FFF7F7F7FB9
:100B50003F1F01000000000000000000000000FF37
:100B6000FF0000000000FEFFFFFFFFFFFFFF7FFF11
:100B7000FFFFFFFEFCF0E0000000000000000001AD
:100B80001F7FFFFFFFFFFFC7C7CFFFFFFFFFFFFF75
:100B9000FEF000000000000000000000000000FF68
:100BA000FF000000000000F0F8D8D8F8D8D8D8D856
:100BB0009818181818181818181818181818181835
:100BC000F8F8FCFCFCFEFCFCFCFCF8F0F0D8D818B3
:100BD000181818181818181818181818181818F8B5
:100BE000F000000A0E740EA80EB80EC60ED40EE267
:100BF0000EF10EFD0E0B0F1E0F2E0F3E0F440F4178
:100C0000726520796F7520737572653F0053415688
:100C100045205550202020444F574E2020454E540B
:100C2000455200202020202020202020202020208D
:100C30002020200043414E43454C2020444F574E36
:100C4000202020555020204F4B004143432D5A2057
:100C500064616D70696E67005472696D20503A204E
:100C6000202020523A002020202020202020202058
:100C70002020202020200052004E00526576657210
:100C80007365204759524F0020202020202020202B
:100C90002020202020202020006E6F200079657306
:100CA00000596573004E6F20004120547269200086
:100CB00059205472692000582051756164002B201E
:100CC0005175616400582051756164002B20517585
:100CD00061640053696E676C6500427564647920D5
:100CE00000545249200051756164004241434B2039
:100CF00020202020202020202020202020202020F4
:100D00000020004572720020202020004E4100414A
:100D1000524D4544004865666E79436F7074657244
:100D2000322076312E312E30004F4B2000310058CA
:100D30000032002B00580059002B0041005800538E
:100D4000696E676C6500427564647920005452498D
:100D500020005175616400414C54484C4400535488
:100D600041424C45004143524F202000520FD82FA2
:100D7000680F9C0F44380000520FBC2FB20FB60F03
:100D8000622CCC0FB60F3B2C01109C0F3234161086
:100D90009C0F5A3216109C0FB03116109C0FD23691
:100DA00050108710E9359D10EB0CC02CF010EB0CA7
:100DB0001F2F261156117F2CF0106C11972D261124
:100DC00056119F2F0A0EEB0C422C000082118A2F25
:100DD00000005941572020202020202020202000E2
:100DE000526F6C6C20202020202020202000506991
:100DF000746368202620526F6C6C20005069746305
:100E0000682020202020202020002D54414B452008
:100E10004F46462050524F50454C4C45525321218D
:100E20000A2D507265737320636F6E74696E7565F9
:100E30000A2D5475726E204F666620517561646389
:100E40006F707465722E0A0A2D517561642077697E
:100E50006C6C20737461727465640A696E2041520F
:100E60004D45442054414B454341524520737461E4
:100E700074650A00507265737320436F6E74696EF7
:100E800075652061667465722063616C6962726168
:100E900074696F6E2E0A0A756E706C7567206261D8
:100EA00074746572792E0A004779726F2050494434
:100EB00020456469746F720053656C66204C6576DA
:100EC000656C696E6700416C74697475646520486F
:100ED0006F6C64004D6F64652053657474696E6750
:100EE00073004D6973632E2053657474696E677364
:100EF0000053656E736F722054657374005265639E
:100F0000656976657220546573740053656E736FFE
:100F1000722043616C6962726174696F6E00537410
:100F200069636B2043656E746572696E6700455333
:100F3000432043616C6962726174696F6E0044653D
:100F400062756700466163746F72792052657365DC
:100F5000740020202020202020202020202020205D
:100F60002020204D454E55000A0A426174743A20F3
:100F7000202020202020760A0A0A52583A202D20CC
:100F800020534E3A2020202053543A202D0A466CFC
:100F9000793A202020426F6172643A004241434B0B
:100FA000205550202020444F574E2020454E544578
:100FB00052000A0A0A002020202020202020202081
:100FC00020202020202020444F4E45000A0A0A4DB0
:100FD000313A202020202020204D343A0A4D323A48
:100FE000202020202020204D333A0A45534320431F
:100FF000616C6962726174696F6E206D6F64650AFD
:10100000000A524553544152540A202020202020E7
:10101000424F415244000A503A20202020202020F4
:101020004C696D3A0A493A202020202020204C6942
:101030006D3A0A443A202020202020204C696D3A45
:101040000A0A5472696D20503A20202020523A003A
:101050004672616D6520547970653A0A4275646420
:10106000792053797374656D3A0A426F6172642016
:101070004469723A0A466C792020204469723A0A1F
:10108000536F6E61723A004241434B2050524556B5
:10109000204E455854204348414E47450041757401
:1010A0006F2044697361726D3A0A566F6C74204107
:1010B0006C61726D3A2020202020202F3130760A7A
:1010C0005468726F74746C65206D696E3A0A53745B
:1010D00069636B205363616C653A0A52432045781B
:1010E000706F3A0A502D52204C696E6B65643A005D
:1010F0004779726F20583A0A4779726F20593A0A35
:101100004779726F205A3A0A4163632020583A0A9D
:101110004163632020593A0A41636320205A3A0A06
:10112000426174743A0020434820202052582D31E7
:101130002020202052582D320A41696C3A0A456C11
:10114000653A0A5275643A0A5468723A0A417578E7
:101150003A0A52583A004241434B20202020202096
:10116000202020434F4E54494E5545004241434BA9
:1011700020434C52202020202020202020444F4E6D
:1011800045004E4F202020202020202020202020FD
:10119000202020205945530000407A10F35A00A027
:1011A000724E18090010A5D4E80000E87648170030
:1011B00000E40B54020000CA9A3B000000E1F50570
:1011C000000080969800000040420F000000A086BA
:1011D00001000000102700000000E80300000000EC
:1011E0006400000000000A00000000000100000090
:1011F00000002C76D888DC674F0823DFC1DFAE59AA
:10120000E1B1B796E5E3E453C63AE651997696E83C
:10121000E6C28426EB898C9B62ED407C6FFCEFBCC0
:101220009C9F40F2BAA56FA5F490055A2AF75C93EB
:101230006B6CF9676DC11BFCE0E40D47FEF520E621
:10124000B500D0ED902E0300943577050080841E04
:10125000080000204E0A000000C80C333333330F5F
:10126000986E12831141EF8D2114893BE65516CFFC
:10127000FEE6DB18D1844B381BF77C1D901DA4BB08
:10128000E424203284725E228100C9F124ECA1E5BD
:101290003D2778941F920F920FB60F9211242F932F
:1012A0003F934F935F936F937F938F939F93AF93EE
:1012B000BF93CF93DF93EF93FF938091B505909108
:1012C000B60501969093B6058093B505C09141058A
:1012D000D0914205CE018F779070009799F4CE019E
:1012E000880F892F881F990B91958770806B60E01C
:1012F0000E94F80B80E160E00E94F80B80E060E063
:101300000E94F80BFE01EF5BFE4F808161E00E94BE
:10131000F80B2196D370D0934205C0934105FF91FD
:10132000EF91DF91CF91BF91AF919F918F917F917D
:101330006F915F914F913F912F910F900FBE0F9042
:101340001F9018951F920F920FB60F9211240F93B2
:101350001F932F933F934F935F936F937F938F933D
:101360009F93AF93BF93CF93DF93EF93FF9316B108
:1013700080914008182786B180934008C09184006E
:10138000D0918500012F15FF18C086B185FF05C0DB
:10139000D0934E08C0934D0810C080E00E94A32750
:1013A0008091AC069091AD069093350880933408F7
:1013B00080910A088F7180930A0800FF0BC086B1E4
:1013C00080FF05C0D0935008C0934F0803C081E050
:1013D0000E94A32717FF2DC080911B07379B0BC0CE
:1013E000D0935408C0935308813019F5469A449A13
:1013F000429A439A1EC0813061F480910A08807F2E
:1014000041F48091620581FD04C046984498429859
:10141000439883E00E94A3278091AC069091AD068B
:10142000909339088093380880910A088F728093CE
:101430000A0801FF0BC086B181FF05C0D093520896
:10144000C093510803C082E00E94A327FF91EF914F
:10145000DF91CF91BF91AF919F918F917F916F91CC
:101460005F914F913F912F911F910F910F900FBE60
:101470000F901F9018951F920F920FB60F92112484
:101480002F933F934F935F936F937F938F939F938C
:10149000AF93BF93EF93FF9389B183FF09C080910E
:1014A00084009091850090934A088093490810C069
:1014B00083E00E947A278091AC069091AD069093CC
:1014C0003B0880933A0880910A08827F80930A083B
:1014D000FF91EF91BF91AF919F918F917F916F910C
:1014E0005F914F913F912F910F900FBE0F901F90E2
:1014F00018951F920F920FB60F9211242F933F93BE
:101500004F935F936F937F938F939F93AF93BF930B
:10151000EF93FF9389B182FF09C08091840090917D
:101520008500909344088093430810C080E00E9497
:101530007A278091AC069091AD0690933D088093F8
:101540003C0880910A08817F80930A08FF91EF91FF
:10155000BF91AF919F918F917F916F915F914F91CB
:101560003F912F910F900FBE0F901F9018951F92D3
:101570000F920FB60F9211242F933F934F935F93C7
:101580006F937F938F939F93AF93BF93EF93FF934B
:1015900089B180FF09C0809184009091850090936B
:1015A00046088093450803C081E00E947A27FF9196
:1015B000EF91BF91AF919F918F917F916F915F91CB
:1015C0004F913F912F910F900FBE0F901F90189544
:1015D0001F920F920FB60F9211242F933F934F93A8
:1015E0005F936F937F938F939F93AF93BF93EF938B
:1015F000FF93809117078F3FF9F48091220780FFB6
:101600001BC083B182FF09C08091B5059091B605DA
:1016100090934208809341081EC08091B505909137
:10162000B6052091410830914208821B930B90939C
:10163000DC058093DB050FC083B182FF09C0809178
:10164000840090918500909348088093470803C0D8
:1016500082E00E947A27FF91EF91BF91AF919F9115
:101660008F917F916F915F914F913F912F910F904B
:101670000FBE0F901F9018951F920F920FB60F92EA
:1016800011242F933F934F935F936F937F938F9387
:101690009F93AF93BF93EF93FF9383B180FF0CC0F1
:1016A000809184009091850090935608809355080E
:1016B00081E080930E070BC084E00E94A3278091F5
:1016C000E9059091EA059093E0058093DF05FF918D
:1016D000EF91BF91AF919F918F917F916F915F91AA
:1016E0004F913F912F910F900FBE0F901F90189523
:1016F00011241FBECFEFD8E0DEBFCDBF11E0A0E0C8
:10170000B1E0E0EEFCE702C005900D92A833B1070E
:10171000D9F718E0A8E3B1E001C01D92A936B107DE
:10172000E1F70E94A2190C946E3E0C940000EF9217
:10173000FF920F931F93CF93DF93EC0100E010E033
:10174000E62EFF240AC0299ACE010E94F80E29989D
:10175000CE010E94F80E0F5F1F4F0E151F059CF360
:10176000DF91CF911F910F91FF90EF90089584B179
:10177000806F84B985B1806F85B908950F931F93E9
:1017800013B11095107F0091BA051092D605112360
:1017900021F18091EE07813011F40E94150F8091A4
:1017A000BA05811759F08091AC069091AD06845D21
:1017B0009E4F90933901809338010FC02091AC0661
:1017C0003091AD06409138015091390142175307CD
:1017D00020F491E09093D60505C0802F809510935A
:1017E000BA0581231F910F9108958091BA0508953C
:1017F0005D986795662767959BB19F77962B9BB9F8
:1018000098E05C9887FF02C0599A01C059985C9A89
:10181000915011F0880FF5CF5D9A08956F7760931E
:101820004001880F880F880F80933F0108958093AF
:10183000400160933F010895262F26952695269511
:1018400030E03695322F222737952795280F311D06
:10185000E62FF0E0E770F070E857FF4FE49191E079
:10186000411190E080913E018170D901AF5BBE4F84
:10187000891729F0E0958C91E823EC9308958C91D9
:101880008E2B8C93089580E094E0E1E4F1E0DF0199
:101890009C011D9221503040E1F780E060E00E9401
:1018A0000E0C10923E0108958F929F92BF92CF929C
:1018B000DF92EF92FF920F931F93DF93CF930F92DC
:1018C000CDB7DEB74C01E62EF42EC22EDD24BB24AC
:1018D000042F10E04FC0832F877029F4F40108947F
:1018E000811C911CB490CC2079F560913F01862F2A
:1018F000877019F5C801831B910988309105ECF0B8
:10190000630F669566956695A62FB0E0B695BA2FDB
:10191000AA27B795A795809140018D0DA80FB11DFD
:1019200080913E01AF5BBE4F80FF04C08B2D809540
:101930008C9301C0BC92395F17C080914001630F46
:101940004B2D41708D0D0CC08C2D813069F4B0FE93
:101950000BC08091400160913F01630F8D0D41E00C
:1019600039830E941C0C3981B6943F5F3F1508F4FF
:10197000B2CFD394DE1410F430E0F8CF0F90CF91B3
:10198000DF911F910F91FF90EF90DF90CF90BF906C
:101990009F908F900895262FFC0164913196449179
:1019A00002960E94540C08958A3051F480913F01B0
:1019B00090913B01890F80933F011092400108955F
:1019C000E0913C01F0913D01099560913A0140910F
:1019D0003B0120E00E94540C8091400190913A011B
:1019E000890F809340010895EF92FF92CF93DF9388
:1019F000E82EE7017E01F92EE70102C00E94D40C17
:101A000089918823D9F7DF91CF91FF90EF900895C6
:101A1000CF93DF93EC0102C00E94D40CFE0121960B
:101A200084918823C9F7DF91CF91089590913E0169
:101A3000882311F0916001C09E7F90933E0108952C
:101A4000EF92FF920F931F93DF93CF9300D00F92EB
:101A5000CDB7DEB7182F822F4A835B8369830E943C
:101A6000160D812F69810E940E0C4A815B818A01CB
:101A700002C00E94D40CF80181918F018823C9F71C
:101A80000E94160D0F900F900F90CF91DF911F9134
:101A90000F91FF90EF9008950F931F93082F10E080
:101AA00004C080E20E94D40C1F5F1017D0F31F9176
:101AB0000F9108950F931F93DF93CF930F92CDB79C
:101AC000DEB78C0169830E94F40CF80101900020BC
:101AD000E9F73197E01BF10B6981862F8E1B0E947D
:101AE0004C0D0F90CF91DF911F910F9108950F939F
:101AF0001F93DF93CF930F92CDB7DEB78C0169832D
:101B00000E94080DC8010E947E3B6981681B862FD8
:101B10000E944C0D0F90CF91DF911F910F9108956E
:101B2000EF92FF920F931F93DF93CF9300D0CDB727
:101B3000DEB7182F7A01802F2A8369830E94160D41
:101B4000812F69810E940E0CC7012A81622F0E9499
:101B5000770D80E00E94160D0F900F90CF91DF91CE
:101B60001F910F91FF90EF900895BF92CF92DF9257
:101B7000EF92FF920F931F93DF93CF93CDB7DEB712
:101B800062970FB6F894DEBF0FBECDBFF82EB62E0B
:101B9000CA01B901302F3250432F22E06E01089460
:101BA000C11CD11C86013A8B0E944C3B8E2D0E9499
:101BB000160D8F2D6B2D0E940E0CC6013A89632FD6
:101BC0000E945A0D80E00E94160D62960FB6F8949E
:101BD000DEBF0FBECDBFCF91DF911F910F91FF9060
:101BE000EF90DF90CF90BF900895EF920F93E02E8B
:101BF00005E00E94B50D0F91EF900895DF92EF92EE
:101C0000FF920F931F93DF93CF93CDB7DEB7289743
:101C10000FB6F894DEBF0FBECDBFD82E162FCA0167
:101C20007E010894E11CF11CB7014AE050E02887CE
:101C30000E949B3B802F0E94160D8D2D612F0E94CC
:101C40000E0CC7012885622F0E945A0D80E00E9469
:101C5000160D28960FB6F894DEBF0FBECDBFCF91FC
:101C6000DF911F910F91FF90EF90DF90089516BCC8
:101C700081E085BBEEE6F0E080818160808308959D
:101C8000EEE6F0E080818E7F808308950F931F93AE
:101C9000CF93DF93082FCEE6D0E018810E94400E4C
:101CA00081E860E00E94F80B802F8F7360E00E9453
:101CB000F80B1883DF91CF911F910F910895BC010C
:101CC000009711F46FE577E08AE391E044E050E09B
:101CD0000E946E3B0895CF93DF93559A569A579A78
:101CE000549A519A5E9889EF90E00197F1F700C0FD
:101CF00000005E9A89EF90E00197F1F700C00000C4
:101D0000CCE7D0E003C060E00E94F80BFE01219612
:101D100084918823C1F780E090E00E945F0E82E00A
:101D200085BD0E94370EDF91CF910895CF92DF924B
:101D3000EF92FF920F931F93DF93CF930F92CDB744
:101D4000DEB76C0125B1269526952695217000E019
:101D500010E0E62EFF2424C085B1869586958695F1
:101D600080958170880F880F880F95B1977F982B89
:101D700095B9C60129830E94F80E85B1869586958E
:101D8000869580958170880F880F880F95B1977F11
:101D9000982B95B9C6010E94F80E0F5F1F4F29813D
:101DA0000E151F05CCF22170220F220F220F85B1D4
:101DB000877F822B85B90F90CF91DF911F910F9173
:101DC000FF90EF90DF90CF9008950FC000000000CB
:101DD0000000000000000000000000000000000003
:101DE00000000000000000000197009779F70895B7
:101DF0001F93CF93DF93EC0108C01AE084E690E0D4
:101E00000E94E50E1150D1F721972097B1F7DF918D
:101E1000CF911F910895509A489A229880E180931B
:101E2000690084E08DBB8CBB08951092EE072B985F
:101E300010921D0610921C0686E490E062E00E945B
:101E4000970B80E090E00E94782F0895CF93DF9366
:101E500010921D0610921C06C0E0D1E0899190E01E
:101E60000E942F2C825C914021E08F35920738F040
:101E70000E94150F8AE090E00E94782F68C081E0F0
:101E8000C630D80759F780911707882339F4809115
:101E90000A0890E08F709070009761F480911C07A1
:101EA000823021F480911D07813021F080910B0850
:101EB000882319F00E94150F4AC081E08093EE0735
:101EC0008EE190E064E070E00E94960E2B9A8CEB1D
:101ED00092E061E00E94970B109254061092530614
:101EE00082E090E00E94782F80E090E0DC01809317
:101EF000BA069093BB06A093BC06B093BD06809330
:101F0000CA069093CB06A093CC06B093CD068093DF
:101F1000DA069093DB06A093DC06B093DD0680938F
:101F2000670590936805A0936905B0936A0580934F
:101F3000770590937805A0937905B0937A058093FF
:101F4000870590938805A0938905B0938A05DF9152
:101F5000CF91089583E197E060E970E04BEC50E0A9
:101F60000E946E3B08950F931F93DF93CF930F92C0
:101F7000CDB7DEB78C0169830E94E23B6981861789
:101F800019F0C8010E94EA3B0F90CF91DF911F9199
:101F90000F910895CF92DF92EF92FF920F931F93CC
:101FA000CF93DF93EC017B016A0100E010E008C0F1
:101FB000C701800F911F69910E94B30F0F5F1F4FE0
:101FC0000C151D05A8F3DF91CF911F910F91FF9084
:101FD000EF90DF90CF90089583E197E060E070E0AC
:101FE0004BEC50E00E94CA0F0895F89483E197E00B
:101FF00060E070E04BEC50E00E94CA0F78948CEBEC
:1020000092E061E00E94970B08950E94AA0FEAE80F
:10201000F7E020EF35E080E694E021933193938B55
:10202000828B31872087958F848F47E0E439F407CE
:10203000A1F70E94F50F089583E197E060E070E05A
:102040004BEC50E00E94D23B809113078E3F41F44D
:10205000809114079091150721E08139920719F0BA
:102060000E940510089583E197E060E070E04BEC7A
:1020700050E00E94D23B08951F920F920FB60F922C
:1020800011248F939F938091AC069091AD06019699
:102090009093AD068093AC069F918F910F900FBEE9
:1020A0000F901F9018951F920F920FB60F92112448
:1020B0008F939F938091B8059091B9050196909365
:1020C000B9058093B8059F918F910F900FBE0F9027
:1020D0001F90189581E08093810080936F0010928B
:1020E000AD061092AC0693E09093B100809370001F
:1020F00017BA1092B2001092B9051092B80508955F
:10210000209117072F3F61F4109243059093CD0063
:102110008093CC0086E08093CA0088E98093C90050
:1021200008959091C80095FFFCCF8093CE0008954C
:10213000EF92FF920F931F93CF93DF93082F192FE6
:10214000C0E0D0E0E62EFF2406C0F80181918F01A7
:102150000E9491102196CE15DF05BCF3DF91CF913F
:102160001F910F91FF90EF900895DF93CF9300D0D0
:10217000CDB7DEB78091EE07813009F465C080E00D
:1021800090E020E0FC01E25EF74F3081230F0196E2
:1021900088309105B9F780912608281709F054C0B6
:1021A00080911E08833421F0863509F04DC033C07C
:1021B00080911F08823089F0833020F4813009F04B
:1021C00043C005C0863009F18730F1F521C08EE1AA
:1021D00090E064E00E94960E37C082E690E09A8319
:1021E000898383E40E94911082E00E949110CE01C5
:1021F000019662E00E94981085E297E069810E9452
:10220000981085E40E9491101FC00E94F50F1CC019
:102210000E948E2A19C080911F0860912008409169
:1022200021089FEF699FB0011124680F711D6D5E39
:10223000784F242F332727FD3095E2E2F8E0CB01D9
:10224000BF01532F0E94873B0F900F90CF91DF91DA
:1022500008951F920F920FB60F9211242F933F9360
:102260004F935F936F937F938F939F93AF93BF939E
:10227000EF93FF938091C80087FFFCCF8091CE0041
:102280008093190880914405882399F08091AC06C9
:102290009091AD0620911A0830911B08821B930B78
:1022A0008531910530F0109244051092430510924B
:1022B0001308E0914305F0E080911908E25EF74FC2
:1022C000808380914405882319F08130C1F406C0D1
:1022D0001092430581E08093440507C08091430537
:1022E000883019F40E94B5100AC0F8948091AC06A9
:1022F0009091AD0690931B0880931A087894809172
:1023000043058F5F8093430580914305893021F415
:102310001092430510924405FF91EF91BF91AF9148
:102320009F918F917F916F915F914F913F912F91ED
:102330000F900FBE0F901F90189590E080979C0112
:10234000220F331F280F391F83E0220F331F8A9576
:10235000E1F7215A3E4FC901089590E080979C0112
:10236000220F331F280F391F220F331F2D59384FCB
:10237000C90108950E94A8380E941C100E94C82715
:10238000809117078F3F31F48091220780FF02C0B0
:102390000E940B0F3E9A3C9A3A9A3B9A4698449870
:1023A00042984398219A239A139810928000109291
:1023B000810010928200809117078F3F21F48AE0FC
:1023C00090E00E9480100E94262C0E944F2A0E94BA
:1023D000B70B0E946A100E946B0E0E94430C0E9471
:1023E000A038789408950E94FF2880911E0690914D
:1023F0001F06009741F48091B8059091B90590931C
:102400001F0680931E068091B8059091B905209112
:102410001E0630911F06821B930B8B30910530F006
:102420000E945D3810921F0610921E06089583E0E8
:102430000E94782F0E94F311FDCF1092F4071092A2
:10244000F5071092F6071092F8071092FD0702C0E8
:102450000E94F3118091160782FFFACF81FFF8CF17
:10246000089580911B06882309F468C18091D105E5
:10247000813009F063C180910A08807F09F05EC154
:102480008091FF068E7F8093FF0680911C069091BD
:102490001D06009741F48091A6069091A70690939F
:1024A0001D0680931C068091EE07813009F05CC008
:1024B0002091D105822F90E0FC01EE0FFF1F43E039
:1024C000880F991F4A95E1F7E80FF91FE65CF94F6D
:1024D0008481958121E08139920784F01092A106D0
:1024E0008091A6069091A70620911C0630911D06AA
:1024F000821B930B21E08233920798F560911A07B3
:10250000662309F41BC18091A6069091A70620912D
:102510005306309154068217930720F41092540604
:10252000109253062091530630915406211531051F
:1025300021F49093540680935306209153063091D2
:102540005406821B930B70E048EE53E0649F9001A9
:10255000659F300D749F300D11242817390708F03E
:10256000EDC00E94150F0895882309F0E7C020915F
:10257000D105822F90E0FC01EE0FFF1F23E0880FB2
:10258000991F2A95E1F7E80FF91FE65CF94F84815E
:1025900095812EEF803792079CF41092A1068091CE
:1025A000A6069091A70620911C0630911D06821B5D
:1025B000930B21E08233920718F00E94260F0895B2
:1025C0002091D105822F90E0FC01EE0FFF1FA3E0C8
:1025D000880F991FAA95E1F7E80FF91FE65CF94FFC
:1025E0008081918121E081399207ACF01092A1069F
:1025F0008091A6069091A70620911C0630911D0699
:10260000821B930B21E08233920708F497C081E08C
:1026100080931E0757C02091D105822F90E0FC01C6
:10262000EE0FFF1F63E0880F991F6A95E1F7E80F2F
:10263000F91FE65CF94F808191812EEF8037920778
:10264000BCF41092A1068091A6069091A706209155
:102650001C0630911D06821B930B21E082339207EA
:1026600008F46CC010921E0780E590E064E02DC075
:102670002091D105822F90E0FC01EE0FFF1F43E077
:10268000880F991F4A95E1F7E80FF91FE65CF94FAB
:10269000828193812EEF80379207F4F41092A10685
:1026A0008091A6069091A70620911C0630911D06E8
:1026B000821B930B21E08233920708F43FC082E033
:1026C0008093520680E590E068E00E94960E10929A
:1026D0001D0610921C0608952091D105822F90E0CE
:1026E000FC01EE0FFF1F23E0880F991F2A95E1F7E9
:1026F000E80FF91FE65CF94F8281938121E081396F
:102700009207E4F01092A1068091A6069091A70688
:1027100020911C0630911D06821B930B21E0823311
:10272000920760F081E08093520680E590E064E0DB
:102730000E94960E10921D0610921C06089580911C
:102740001B06882309F487C080910A08807F09F05E
:1027500082C080911C0690911D06009741F48091E3
:10276000A6069091A70690931D0680931C06809163
:1027700046069091470621E0813992078CF010922D
:10278000A1068091A6069091A70620911C06309183
:102790001D06821B930B8135910500F180E218C064
:1027A00080914606909147062EEF80379207B4F449
:1027B0001092A1068091A6069091A70620911C0672
:1027C00030911D06821B930B8135910538F080E412
:1027D0008093FE0610921D0610921C0680914406FE
:1027E0009091450621E081399207BCF01092A10634
:1027F0008091A6069091A70620911C0630911D0697
:10280000821B930B8135910530F180E18093FE06A8
:1028100010921D0610921C06089580914406909116
:1028200045062EEF80379207B4F41092A1068091EE
:10283000A6069091A70620911C0630911D06821BCA
:10284000930B8135910538F080E88093FE06109255
:102850001D0610921C06089510929405109293057F
:102860001092960510929505109298051092970572
:1028700080911C07823059F4809148069091490656
:102880008A5D9D4F90939A058093990504C010929C
:102890009A05109299050E94712608952F923F92F1
:1028A0004F925F926F927F928F929F92AF92BF9260
:1028B000CF92DF92EF92FF920F931F93CF93DF930C
:1028C0000E94FF282091D105822F90E0FC01EE0F9D
:1028D000FF1F23E0880F991F2A95E1F7E80FF91FE2
:1028E000E65CF94F66817781882777FD8095982F80
:1028F0000E94B7396093C7057093C8058093C905D6
:102900009093CA050E94492BF8948091AC0690914F
:10291000AD069093A7068093A60678940E94351C76
:1029200021E02093A10680911707882389F48091E4
:102930000A08807F69F480914C0690914D063EEF25
:10294000803793071CF41092D10502C02093D10563
:1029500080911E0690911F062091A6063091A70631
:10296000009729F430931F0620931E0679C0281B78
:10297000390B2530310508F473C00E945D38609131
:1029800087076623F1F0E0908F06F09090060091A3
:1029900091061091920670E0882777FD8095982F18
:1029A0000E94B7399B01AC01C801B7010E941839D8
:1029B0009091FF0687FF02C0926001C09D7F9093B7
:1029C000FF068091FF06882351F085B1869580959A
:1029D0008170880F95B19D7F982B95B901C029987A
:1029E000809117078F3FC1F520914505222381F083
:1029F00080914C0690914D064EEF8037940734F449
:102A000084E0809352061092450526C0213071F073
:102A100080914C0690914D0651E08139950724F044
:102A200081E08093520616C02B30B1F080914C06A5
:102A300090914D0621E08039920774F480914C0604
:102A400090914D063EEF8137930734F082E08093FA
:102A500052068BE08093450510921F0610921E06C9
:102A60006091C7057091C8058091C9059091CA050C
:102A700020E030E048E452E40E94183987FF09C0A2
:102A80000E9431120E942C140E94F81A0E94111CFC
:102A900029C48091EE07882329F40E942C140E94F7
:102AA0009F1320C410925406109253062091D10512
:102AB000822F90E0FC01EE0FFF1F13E0880F991F9B
:102AC0001A95E1F7E80FF91FE65CF94F80819181D3
:102AD0000E94A0238091080790910907A0910A07FE
:102AE000B0910B078093BB059093BC05A093BD05E7
:102AF000B093BE052091D105822F90E0FC01EE0F2E
:102B0000FF1FA3E0880F991FAA95E1F7E80FF91FAF
:102B1000E65CF94F828193810E94A023809108078F
:102B200090910907A0910A07B0910B078093BF0508
:102B30009093C005A093C105B093C2052091D10523
:102B4000822F90E0FC01EE0FFF1F63E0880F991FBA
:102B50006A95E1F7E80FF91FE65CF94F648175812A
:102B6000882777FD8095982F0E94B73920E030E0C4
:102B700040E05FE30E946B3A6093C3057093C40525
:102B80008093C5059093C6056091C7057091C805EF
:102B90008091C9059091CA050E948439EB0180910A
:102BA0001C07813071F440911D0780916D06909152
:102BB0006E062091B3053091B405413009F073C021
:102BC0004EC060916D0670916E06882777FD8095E6
:102BD000982F0E94B7397B018C01BE01882777FDB1
:102BE0008095982F0E94B7395B016C01C801B7012D
:102BF0002FE135E84BEA5FE30E946B3A9B01AC01A1
:102C0000C601B5010E94B4380E94843970939805BA
:102C100060939705C801B7012FE135E84BE25FE308
:102C20000E946B3A0E9484399B0170936E066093F8
:102C30006D064091B3055091B405CE01821B930BF4
:102C4000841B950B9093940580939305C40FD51F17
:102C5000C21BD30BD0939605C09395053FC0AE0120
:102C6000421B530B481B590B5093940540939305FB
:102C7000AE01481B590B420F531F509396054093CA
:102C80009505AC01420F531F4C0F5D1F50939805E3
:102C900040939705C80FD91FC21BD30BD0939A0539
:102CA000C09399051BC0AE01420F531F5093960568
:102CB00040939505AE01421B530B50939A054093E8
:102CC00099059E01281B390B309394052093930599
:102CD000C80FD91FD0939805C093970580915206CD
:102CE000813009F0D5C190911C0780911E07913069
:102CF00009F027C180909305909094056090990504
:102D000070909A054090950550909605C091970552
:102D1000D0919805813009F0CBC06091BB057091CE
:102D2000BC058091BD059091BE052EEA37E441E2D5
:102D30005FE30E946B3A8B017C01862F912FAE2DB1
:102D4000BF2D8093BB059093BC05A093BD05B093A8
:102D5000BE056091BF057091C0058091C10590913D
:102D6000C2052EEA37E441E25FE30E946B3AD62EB9
:102D7000C72EB82EA92EA6019501852F942FA32F1B
:102D8000B22F8093BF059093C005A093C105B09367
:102D9000C205B401882777FD8095982F0E94B73926
:102DA000202F312F4E2D5F2D0E94B4380E94843980
:102DB0001B01B301882777FD8095982F0E94B739B2
:102DC000202F312F4E2D5F2D0E94B4380E94843960
:102DD0003B01B201882777FD8095982F0E94B73973
:102DE000202F312F4E2D5F2D0E94B3380E94843941
:102DF0004B01BE01882777FD8095982F0E94B73937
:102E0000202F312F4E2D5F2D0E94B3380E94843920
:102E1000EB01B101882777FD8095982F0E94B73983
:102E2000D601F5012B2F3A2F4F2F5E2F0E94B43879
:102E30000E9484397093940560939305B4018827A8
:102E400077FD8095982F0E94B739D601F5012B2F79
:102E50003A2F4F2F5E2F0E94B4380E94843970930E
:102E6000960560939505BE01882777FD8095982F7C
:102E70000E94B739D601F5012B2F3A2F4F2F5E2F25
:102E80000E94B3380E948439709398056093970527
:102E9000B301882777FD8095982F0E94B739D60116
:102EA000F5012B2F3A2F4F2F5E2F0E94B33843C1CD
:102EB000E090BF05F090C0050091C1051091C205DA
:102EC000B401882777FD8095982F0E94B739A80113
:102ED00097010E94B4380E948439709394056093DE
:102EE0009305BE01882777FD8095982F0E94B739FA
:102EF000A80197010E94B3380E9484397093980505
:102F000060939705E090BB05F090BC050091BD056E
:102F10001091BE05B201882777FD8095982F0E94F9
:102F2000B739A80197010E94B3380E948439709381
:102F3000960560939505B301882777FD8095982FB6
:102F4000F4C0813011F061E001C06FEF772767FDB9
:102F50007095872F972F0E94B7395B016C012091E4
:102F6000BF053091C0054091C1055091C2050E9436
:102F70006B3AF62E072F182FE92E60919705709166
:102F80009805882777FD8095982F0E94B7392F2DB7
:102F9000302F412F5E2D0E94B3380E9484397093E8
:102FA0009805609397058F2D902FA12FBE2D8093AC
:102FB000BF059093C005A093C105B093C205609171
:102FC000930570919405882777FD8095982F0E942E
:102FD000B7392F2D302F412F5E2D0E94B4380E941B
:102FE00084394B016091950570919605882777FD8E
:102FF0008095982F0E94B7392F2D302F412F5E2DAD
:103000000E94B4380E948439EB01C601B5012091B9
:10301000BB053091BC054091BD055091BE050E9495
:103020006B3AF62E072F182FE92E862F902FA12FFF
:10303000BE2D8093BB059093BC05A093BD05B093B6
:10304000BE05B401882777FD8095982F0E94B73977
:103050002F2D302F412F5E2D0E94B4380E948439CD
:103060007093940560939305BE01882777FD809542
:10307000982F0E94B7392F2D302F412F5E2D0E949F
:10308000B3380E948439E3E9F5E0738362836BC04F
:103090000E9480207B018C016091930570919405C2
:1030A000882777FD8095982F0E94B739A80197014E
:1030B0000E94B4380E9484397093940560939305FC
:1030C0006091950570919605882777FD8095982FDA
:1030D0000E94B739A80197010E94B4380E94843930
:1030E000709396056093950580911C07C091970594
:1030F000D0919805813031F5BE01882777FD809504
:10310000982F0E94B739A80197010E94B4380E94F5
:103110008439709398056093970560919905709133
:103120009A05882777FD8095982F0E94B739A801C6
:1031300097010E94B4380E94843970939A05609375
:10314000990511C0BE01882777FD8095982F0E94B0
:10315000B739A80197010E94B4380E94843970934E
:1031600098056093970510911C0780910F07909127
:103170001007113049F52091930530919405281BD3
:10318000390B309394052093930520919705309146
:103190009805281B390B30939805209397052091AB
:1031A000950530919605280F391F30939605209389
:1031B00095052091990530919A05280F391F309374
:1031C0009A052093990535C00091DC07202F3327FD
:1031D00027FD3095289FB001299F700D389F700DF5
:1031E00011246A5D7D4F882777FD8095982F0E9476
:1031F000B7396B017C01602F772767FD7095872FAA
:10320000972F0E94B7392091C3053091C405409192
:10321000C5055091C6050E946B3A9B01AC01C701E0
:10322000B6010E94B3380E94843970939A05609366
:10323000990580919305909194058436910534F415
:1032400084E690E090939405809393058091950592
:10325000909196058436910534F484E690E090933D
:1032600096058093950580919705909198058436F1
:10327000910534F484E690E0909398058093970547
:10328000113069F48091990590919A0584369105E1
:1032900034F484E690E090939A05809399058091A8
:1032A00017078F3FF9F489E40E94911087E796E0B1
:1032B0006CE00E9498108EE496E064E00E94981002
:1032C00084E097E064E00E94981083E796E064E071
:1032D0000E94981083E995E068E00E94981085E4C8
:1032E0000E94911080910A08807F79F00E942C142E
:1032F0008091EE07813049F40E9471260E94150FDB
:103300008091FF0681608093FF060E947126809164
:10331000A106813021F410921D0610921C06DF9147
:10332000CF911F910F91FF90EF90DF90CF90BF90C2
:10333000AF909F908F907F906F905F904F903F9055
:103340002F90089510921B060E94BA1110926205E8
:103350001092FF0681E0809352068093450587E72F
:1033600096E090931D0880931C0810920E0880919F
:10337000850090E090930307809302070E941D123E
:1033800080911B07813011F40E9417120E94A83807
:103390000E940B230E944E14FDCF8F929F92AF92FA
:1033A000BF92CF92DF92EF92FF920F931F93DF9322
:1033B000CF93CDB7DEB72E970FB6F894DEBF0FBE12
:1033C000CDBFC982DA82EB82FC820D831E832F83FC
:1033D000388749875A876B877C878D879E87CD8CF6
:1033E000DE8CEF8CF8A009A1112707FD10956981EB
:1033F0007A81882777FD8095982F0E94B7399B01A5
:10340000AC01C701B6010E946B3AF801EE0FFF1F35
:10341000E00FF11FEE0FFF1FEE0FFF1FE95FFE4FE2
:1034200020813181428153810E941C39F5016083E2
:10343000718382839383C701B601248535854685D0
:1034400057850E94B3380E9484394B01C701B601E9
:1034500020E030E040E050E40E94673A181654F053
:10346000C701B60120E030E040E050EC0E9418397E
:1034700087FF2DC06D817E81882777FD8095982FED
:103480000E94B7399B01AC01C701B6010E946B3A9B
:10349000F801EE0FFF1FE00FF11FEE0FFF1FEE0F01
:1034A000FF1FE95FFE4F24813581468157810E94CD
:1034B0001C399B01AC01F50164817581868197817E
:1034C0000E94B438F5016483758386839783898568
:1034D0009A85889EB001899E700D989E700D11246A
:1034E000882777FD8095982F0E94B739F801EE0F55
:1034F000FF1FE00FF11FEE0FFF1FEE0FFF1FE95F31
:10350000FE4F20853185428553850E941C39F50187
:103510006087718782879387C486D586E686F7861B
:10352000E480F580068117816F817885882777FD93
:103530008095982F0E94B7399B01AC01C801B70153
:103540000E94C222F5016483758386839783E0809D
:10355000F180028113816B817C81882777FD8095C2
:10356000982F0E94B7399B01AC01C801B7010E9496
:10357000C222F5016083718382839383E084F184A6
:10358000028513856B857C85882777FD8095982F2C
:103590000E94B7399B01AC01C801B7010E94C22249
:1035A0007B018C01F5016087718782879387608139
:1035B00071818281938124813581468157810E9466
:1035C000B438A80197010E94B4382E960FB6F8942B
:1035D000DEBF0FBECDBFCF91DF911F910F91FF9046
:1035E000EF90DF90CF90BF90AF909F908F90089515
:1035F00080E090E0DC018093BA069093BB06A09334
:10360000BC06B093BD068093670590936805A093B0
:103610006905B0936A058093CA069093CB06A09380
:10362000CC06B093CD068093770590937805A09350
:103630007905B0937A058093DA069093DB06A09320
:10364000DC06B093DD068093870590938805A093F0
:103650008905B0938A058093E2079093E307A093CE
:10366000E407B093E50708952F923F924F925F923F
:103670006F927F928F929F92AF92BF92CF92DF9282
:10368000EF92FF920F931F93DF93CF9300D000D060
:10369000CDB7DEB7609117067091180680911906B4
:1036A00090911A062AE037ED43EA5CE30E946B3AF8
:1036B00069837A838B839C8360915506709156064B
:1036C00080915706909158062AE037ED43EA5CE373
:1036D0000E946B3AF62E072F182FE92E80910407CF
:1036E00090910507A0910607B091070780914E06BB
:1036F00090914F06A0915006B0915106209004077A
:10370000309005074090060750900707A0906F067D
:10371000B0907006C0907106D09072066091B206AB
:103720007091B3068091B4069091B5062AE037ED0A
:1037300043EA5CE30E946B3A3B014C016F2D702F12
:10374000812F9E2DA60195010E946B3A2EED3EE140
:1037500044E05CE30E946B3A9B01AC01C401B301FD
:103760000E94B3389B01AC01C201B1010E94B43880
:103770009B01AC0120930407309305074093060793
:1037800050930707A0904E06B0904F06C090500689
:10379000D09051062091AE063091AF064091B00610
:1037A0005091B1066F2D702F812F9E2D0E946B3A84
:1037B0002EED3EE144E05CE30E946B3A9B01AC01DC
:1037C000B981AA811B810C816B2F7A2F812F902FB9
:1037D0000E94B4389B01AC01C601B5010E94B43807
:1037E0009B01AC0120934E0630934F064093500648
:1037F000509351060F900F900F900F90CF91DF9143
:103800001F910F91FF90EF90DF90CF90BF90AF90FE
:103810009F908F907F906F905F904F903F902F90F0
:10382000089580E090E0DC0180936F06909370062D
:10383000A0937106B09372068093AE069093AF0684
:10384000A093B006B093B10680934E0690934F06B6
:10385000A0935006B09351068093040790930507F8
:10386000A0930607B093070708952F923F924F92B7
:103870005F926F927F928F929F92AF92BF92CF9200
:10388000DF92EF92FF920F931F93DF93CF93CDB709
:10389000DEB769970FB6F894DEBF0FBECDBFE090DC
:1038A0007F06F0908006009181061091820660915B
:1038B000550670915606809157069091580620E063
:1038C00030E0A9010E946B3AA80197010E94B43828
:1038D000609355067093560680935706909358064A
:1038E00080917B0690917C06A0917D06B0917E062A
:1038F0008093170690931806A0931906B0931A06A2
:1039000020917706309178064091790650917A0699
:103910002093B2063093B3064093B4065093B50695
:1039200000D000D00F92EDB7FEB781839283A383BE
:10393000B4831582C0902507D0902607E090270712
:10394000F09028070091290710912A0720912B0752
:1039500030912C0740912D0750912E0760912F0731
:10396000709130078091310790913207E6EBAE2ECF
:10397000E6E0BE2E0E94CD190E94843970936E0637
:1039800060936D068091B2069091B306A091B40643
:10399000B091B506EDB7FEB781839283A383B4835C
:1039A0001582C0903307D0903407E0903507F0902F
:1039B0003607009137071091380720913907309169
:1039C0003A0740913B0750913C0760913D07709149
:1039D0003E0780913F0790914007B6ECAB2EB6E0D2
:1039E000BB2E0E94CD190E9484397093B405609358
:1039F000B3050DB71EB70F5F1F4F6091C3057091E0
:103A0000C4058091C5059091C60520E030E040E0F6
:103A10005FE30E946B3A9B01AC0160915506709187
:103A2000560680915706909158060E94B338D801E7
:103A30006D937D938D939C93139714961C92C090D5
:103A40004107D0904207E0904307F090440700916F
:103A5000450710914607209147073091480740914C
:103A6000490750914A0760914B0770914C0780912C
:103A70004D0790914E07A6EDAA2EA6E0BA2E0E9401
:103A8000CD190E9484397093100760930F07E0905E
:103A90008306F0908406009185061091860617FB38
:103AA000109517F9109560918807772767FD709535
:103AB000872F972F0E94B7399B01AC01C801B7012E
:103AC0000E94B338698B7D8B8E8B9F8BE09087062D
:103AD000F09088060091890610918A0617FB1095D0
:103AE00017F9109560918907772767FD7095872FE3
:103AF000972F0E94B7399B01AC01C801B7010E9402
:103B0000B338562E372E282E988F6091310770913A
:103B10003207882777FD8095982F0E94B73920E0DB
:103B200030E04AE754E40E941C39E62E072F182F94
:103B3000992E60E070E080E89FE32E2D302F412F1A
:103B4000592D0E94B338462E872E782E692E20914B
:103B50006F063091700640917106509172066E2D7D
:103B6000702F812F992D0E946B3A5B016C0193019C
:103B7000642D782D832F922FB989AD89FE88EF8926
:103B8000E98F2B2F3A2F4F2D5E2F0E946B3A9B010E
:103B9000AC01C601B5010E94B4389B01AC01209371
:103BA0006F06309370064093710650937206209111
:103BB000AE063091AF064091B0065091B1066E2D21
:103BC000702F812F992D0E946B3A7B018C019301FC
:103BD000642D782D832F922F988C252D332D422DF7
:103BE000592D0E946B3A9B01AC01C801B7010E949C
:103BF000B4389B01AC012093AE063093AF064093DE
:103C0000B0065093B1068091A6069091A706209128
:103C1000020730910307AC01421B530B50930D0771
:103C200040930C07909303078093020760910C0761
:103C300070910D0780E090E00E94B5396093D20545
:103C40007093D3058093D4059093D5050F900F9072
:103C50000F900F900F900E94341B60916F0670912F
:103C60007006809171069091720620E030E046E186
:103C700053E40E94183987FFAFC060916F067091BE
:103C80007006809171069091720620E030E046E166
:103C900053EC0E94673A18160CF09EC06091AE0675
:103CA0007091AF068091B0069091B10620E030E0AF
:103CB00046E153E40E94183987FF8EC06091AE063A
:103CC0007091AF068091B0069091B10620E030E08F
:103CD00046E153EC0E94673A18160CF07DC06091E3
:103CE0005B0770915C07882777FD8095982F0E946D
:103CF000B73920E030E04AE754E40E941C39E62E50
:103D0000072F182F992E60E070E080E89FE32E2D9A
:103D1000302F412F592D0E94B338462E872E782EF2
:103D2000692E2091040730910507409106075091B4
:103D300007076E2D702F812F992D0E946B3A5B0122
:103D40006C019301642D782D832F922F588D598FFC
:103D5000252D332D422D0E946B3A9B01AC01C601EB
:103D6000B5010E94B4389B01AC0120930407309345
:103D70000507409306075093070720914E063091A0
:103D80004F0640915006509151066E2D702F812F95
:103D9000992D0E946B3A7B018C019301642D782D43
:103DA000832F922FB989AD89AE889F882B2F3A2F08
:103DB0004A2D592D0E946B3A9B01AC01C801B701F5
:103DC0000E94B4389B01AC0120934E0630934F06FD
:103DD0004093500650935106E0904E06F0904F06E7
:103DE00000915006109151068091040790910507AB
:103DF000A0910607B0910707898B9A8BAB8BBC8B80
:103E000080911D078823E9F490911E079130C9F431
:103E100080911C078130F1F483E393E3A3E3BFEBCC
:103E200089879A87AB87BC8783E393E3A3E3BFE3E8
:103E30008D879E87AF87B88B8D839E83AF83B8872E
:103E400040C090911E07891789F08130F1F59923C0
:103E500021F13BC080E090E0DC0189879A87AB8745
:103E6000BC8780E090E0A0E8BFEB0BC080E090E072
:103E7000DC0189879A87AB87BC8780E090E0A0E867
:103E8000BFE38D879E87AF87B88B8D839E83AF837B
:103E9000B88780E090E0DC0114C083E393E3A3E300
:103EA000BFE389879A87AB87BC878D879E87AF875B
:103EB000B88B8D839E83AF83B88783E393E3A3E3BB
:103EC000BFEB89839A83AB83BC83A090BB05B09082
:103ED000BC05C090BD05D090BE054090BF05509078
:103EE000C0056090C1057090C205C601B501298169
:103EF0003A814B815C810E946B3A9B01AC01C80105
:103F0000B7010E94B3387B018C01C301B2012D813E
:103F10003E814F8158850E946B3A9B01AC01C801DC
:103F2000B7010E94B338162F972EE82E092F862F3F
:103F3000992DAE2DB02F8093340690933506A09323
:103F40003606B0933706C601B5012D853E854F85EF
:103F500058890E946B3A9B01AC0169897A898B89E7
:103F60009C890E94B3385B016C01C301B2012985B1
:103F70003A854B855C850E946B3A9B01AC01C6017A
:103F8000B5010E94B33860935E0570935F0580931E
:103F90006005909361058091520680FD98C0609104
:103FA0006D0670916E06882777FD8095982F0E9488
:103FB000B7392B013C0100D000D00F92812F992DF1
:103FC000AE2DB02FEDB7FEB781839283A383B48368
:103FD000992493949582C0904F07D0905007E09019
:103FE0005107F09052070091530710915407209108
:103FF00055073091560740915707509158076091E7
:10400000590770915A0780915B0790915C07F3E61E
:10401000AF2EF5E0BF2E0E94CD199B01AC01C3016C
:10402000B2010E94B4380E94843970936E06609386
:104030006D066091B3057091B405882777FD809572
:10404000982F0E94B7392B013C0180915E05909119
:104050005F05A0916005B0916105EDB7FEB7818362
:104060009283A383B4839582C0905D07D0905E074E
:10407000E0905F07F0906007009161071091620780
:10408000209163073091640740916507509166075E
:1040900060916707709168078091690790916A073E
:1040A000E3E7AE2EE5E0BE2E0E94CD199B01AC01E8
:1040B000C301B2010E94B4380E9484397093B405E0
:1040C0006093B3050F900F900F900F900F9069962B
:1040D0000FB6F894DEBF0FBECDBFCF91DF911F9119
:1040E0000F91FF90EF90DF90CF90BF90AF909F9097
:1040F0008F907F906F905F904F903F902F9008959A
:10410000AF92BF92CF92DF92EF92FF920F931F93E5
:1041100080918B0690918C06A0918D06B0918E06B1
:1041200000D000D00F92B058EDB7FEB781839283D4
:10413000A383B4831582C0906B07D0906C07E09086
:104140006D07F0906E0700916F0710917007209136
:104150007107309172074091730750917407609115
:104160007507709176078091770790917807A3E89B
:10417000AA2EA5E0BA2E0E94CD196093A2067093D4
:10418000A3068093A4069093A5060F900F900F901E
:104190000F900F90809117078F3F09F0F7C0809123
:1041A000220780FFF3C080915206843009F0EEC0F0
:1041B000489AF8946091DB057091DC0580E090E00E
:1041C0000E94B5397B018C0178947F2D912F20E0DE
:1041D00030E849E054E40E94183987FFB7C0809165
:1041E0004B05882329F58091490590914A05833034
:1041F000910534F4019690934A0580934905CCC00B
:104200006E2D7F2D802F912F0E9489397093010789
:104210006093000780E090E0DC018093E2079093D8
:10422000E307A093E407B093E50781E080934B0593
:10423000609100077091010780E090E00E94B5391D
:104240002E2D3F2D402F512F0E94B338F62E072FD1
:10425000182FE92E862F902FA12FBE2D8093E606D2
:104260009093E706A093E806B093E9066F2D702FB0
:10427000812F9E2D20E030E048E452E40E9418395E
:1042800087FF5FC06F2D702F812F9E2D20E030E0C3
:1042900048E452EC0E94673A18160CF052C0109293
:1042A000460500D000D00F928F2D902FA12FBE2D4C
:1042B000EDB7FEB781839283A383B4831582C09048
:1042C0007907D0907A07E0907B07F0907C07009107
:1042D0007D0710917E0720917F07309180074091E4
:1042E00081075091820760918307709184078091C4
:1042F000850790918607FEEDAF2EF7E0BF2E0E9456
:10430000CD190E9484397B018C0170934A0560931A
:1043100049050F900F900F900F900F906091E60657
:104320007091E7068091E8069091E90620E030E080
:10433000A9010E941839882321F4F0924805E092DF
:1043400047056091490570914A0504C06091470591
:1043500070914805882777FD8095982F0E94B7397E
:104360009B01AC016091A2067091A3068091A40606
:104370009091A5060E94B4386093A2067093A3069C
:104380008093A4069093A506489806C010924A050B
:104390001092490510924B057091A2066091A306F8
:1043A0009091A4068091A506AB019C01652F742F06
:1043B000832F922F1F910F91FF90EF90DF90CF905E
:1043C000BF90AF9008959F92AF92BF92CF92DF922D
:1043D000EF92FF920F931F93DF93CF93CDB7DEB78A
:1043E00028970FB6F894DEBF0FBECDBF69837A83DE
:1043F0008B839C832D833E834F8358870E941C3977
:10440000D62EC72EB82EA92EE62EF72E082F192F3E
:10441000A6019501652F742F832F922F20E030E0A5
:1044200048EC52E40E946B3A0E948439272F862F71
:10443000922F97FF03C0909581959F4F9C80991C68
:104440009924991C843691050CF03FC08B3091055E
:1044500064F1A6019501652F7C2D832F9A2D29E209
:104460003CE54FE85EE30E946B3AD601F5012B2F45
:104470003C2D4F2F5A2D0E946B3A20E030E040E84F
:104480005FE30E94B4387B018C01B601C501272F80
:104490003C2D492F5A2DCA01B9012E2D3F2D402FF9
:1044A000512F0E941C397B018C01888587FF4BC0EE
:1044B0009920E9F56E2D7F2D802F912F20ED3FE083
:1044C00049E450E40E94B4383CC0A6019501652F30
:1044D0007C2D832F9A2DD601F5012B2F3C2D4F2FAC
:1044E0005A2D0E946B3A29E23CE54FE85EE30E94B8
:1044F000B4389B01AC01D601F5016B2F7C2D8F2FB9
:104500009A2D0E941C39562F472F382F292F60EDE6
:104510007FE089EC9FE3DA01F9012B2F3A2F4F2F2F
:104520005E2F0E94B3387B018C01992061F06E2DC3
:104530007F2D802F912F20ED3FE049E450E40E9431
:10454000B3387B018C016E2D7F2D802F912F24E5B8
:104550003DE34FE054E40E946B3A0E948439CB0162
:1045600028960FB6F894DEBF0FBECDBFCF91DF9176
:104570001F910F91FF90EF90DF90CF90BF90AF9081
:104580009F900895AF92BF92CF92DF92EF92FF92E9
:104590000F931F93D62EC72EB82EA92E79018A010C
:1045A000A6019501652F742F832F922FA8019701E3
:1045B0000E94673A1816B4F017FB109517F910957A
:1045C000A6019501652F742F832F922FA8019701C3
:1045D0000E94183987FD06C09601C501E32EF22E10
:1045E000092F182F6E2D7F2D802F912F1F910F9146
:1045F000FF90EF90DF90CF90BF90AF900895681735
:1046000079073CF0709561957F4F681779070CF436
:10461000BC01CB0108956F927F928F929F92AF92CF
:10462000BF92CF92DF92EF92FF920F931F93CF939F
:10463000DF9360912307772767FD7095872F972F6A
:104640000E94B73920E030E048EC52E40E941C3967
:10465000162F072FF82EE92E6091240770E080E0D6
:1046600090E00E94B53920E030E048EC52E40E942E
:104670001C39D801F7012B2F3A2F4F2F5E2F0E94A4
:10468000B338962E872E782E692EC0E0D0E0CC9FCE
:10469000B001CD9F700DDC9F700D1124882777FD30
:1046A0008095982F0E94B73920E030E048EC52E422
:1046B0000E941C39D801F7012B2F302F4F2F5E2D70
:1046C0000E946B3A5B016C01BE01882777FD8095E3
:1046D000982F0E94B739D401F3012B2F382D4F2F7B
:1046E000562D0E946B3A20E030E040E251E40E94F7
:1046F0001C399B01AC01C601B5010E94B4389B0175
:10470000AC01FE01EE0FFF1FEE0FFF1FE551FA4F48
:1047100020833183428353832196CB30D10509F026
:10472000B6CFDF91CF911F910F91FF90EF90DF9067
:10473000CF90BF90AF909F908F907F906F90089593
:104740002F923F924F925F926F927F928F929F92A1
:10475000AF92BF92CF92DF92FF920F931F93CF93AE
:10476000DF93EC018C0197FF04C000271127081B81
:10477000190BC80167E370E00E94393B862F992727
:1047800087FD9095FC01EE0FFF1FEE0FFF1FE55117
:10479000FA4FA080B180C280D3806AE070E00E94AE
:1047A000FF22F82EE82FFF27E7FDF0958A300CF066
:1047B00040C0EE0FFF1FEE0FFF1FE151FA4F608167
:1047C000718182819381A60195010E94B33820E016
:1047D00030E048E452E40E941C391B012C01B8016E
:1047E000882777FD8095982F0E94B7393B014C01AF
:1047F0006F2D772767FD7095872F972F0E94B73908
:1048000020E030E048E452E40E946B3A9B01AC01A6
:10481000C401B3010E94B3389B01AC01C201B101D4
:104820000E946B3A9B01AC01C601B5010E94B438ED
:104830000AC0EE0FFF1FEE0FFF1FE551FA4F608118
:10484000718182819381D7FD905820E030E04AEF5A
:1048500053E40E946B3A60930807709309078093B2
:104860000A0790930B07DF91CF911F910F91FF9053
:10487000DF90CF90BF90AF909F908F907F906F9080
:104880005F904F903F902F9008956F927F928F92FC
:104890009F92AF92BF92CF92DF92EF92FF920F93CF
:1048A0001F93FC012081318142815381E480F58096
:1048B00006811781A084B184C284D384CA01B9015E
:1048C0000E946B3A3B014C01C801B701A801970156
:1048D0000E946B3A9B01AC01C401B3010E94B43841
:1048E0007B018C01C601B501A60195010E946B3ABE
:1048F0009B01AC01C801B7010E94B438262F372FA5
:10490000482F592F2093500530935105409352055D
:10491000509353050E94D23A1F910F91FF90EF9050
:10492000DF90CF90BF90AF909F908F907F906F90CF
:104930000895EF92FF920F931F93CF93DF93EC01B3
:104940000E9445247B018C0160934C0570934D05BA
:1049500080934E0590934F05688179818A819B8170
:10496000A80197010E941C39688379838A839B83FD
:104970006C817D818E819F81A80197010E941C39E5
:104980006C837D838E839F83688579858A859B85EB
:10499000A80197010E941C39688779878A879B87BD
:1049A000DF91CF911F910F91FF90EF900895CF92DB
:1049B000DF92EF92FF920F931F93CF93DF93EC015F
:1049C0008B01688179818A819B81F8012081318105
:1049D000428153810E946B3A6B017C016C817D8125
:1049E0008E819F81F80124813581468157810E9403
:1049F0006B3A9B01AC01C701B6010E94B4386B0150
:104A00007C01688579858A859B85F80120853185BB
:104A1000428553850E946B3A9B01AC01C701B601E8
:104A20000E94B438DF91CF911F910F91FF90EF90CA
:104A3000DF90CF900895AF92BF92CF92DF92EF9226
:104A4000FF920F931F93CF93DF93EC018B017A01B9
:104A50006C817D818E819F81F80120853185428521
:104A600053850E946B3A5B016C01688579858A8564
:104A70009B85F80124813581468157810E946B3ADC
:104A80009B01AC01C601B5010E94B338F7016083F8
:104A9000718382839383688579858A859B85F801F4
:104AA00020813181428153810E946B3A5B016C010C
:104AB000688179818A819B81F801208531854285D1
:104AC00053850E946B3A9B01AC01C601B5010E945F
:104AD000B338F7016483758386839783688179810E
:104AE0008A819B81F80124813581468157810E940A
:104AF0006B3A5B016C016C817D818E819F81F80135
:104B000020813181428153810E946B3A9B01AC012B
:104B1000C601B5010E94B338F701608771878287AB
:104B20009387DF91CF911F910F91FF90EF90DF90CE
:104B3000CF90BF90AF900895CF92DF92EF92FF9207
:104B40000F931F93CF93DF937B018C01EA016901DF
:104B5000288139814A815B810E946B3AF60160832A
:104B6000718382839383C801B7012C813D814E817B
:104B70005F810E946B3AF601648375838683978315
:104B8000C801B701288539854A855B850E946B3A43
:104B9000F6016087718782879387DF91CF911F919C
:104BA0000F91FF90EF90DF90CF900895EF92FF92DA
:104BB0000F931F93CF93DF93EC018B017A016881F0
:104BC00079818A819B81F8012081318142815381E1
:104BD0000E94B438F70160837183828393836C8170
:104BE0007D818E819F81F8012481358146815781A5
:104BF0000E94B438F7016483758386839783688540
:104C000079858A859B85F801208531854285538584
:104C10000E94B438F7016087718782879387DF919C
:104C2000CF911F910F91FF90EF900895EF92FF9217
:104C30000F931F93DC01FB0120E030E040E85FE3CD
:104C4000208331834283538318966D917D918D919A
:104C50009C911B97905864837583868397831496E1
:104C60006D917D918D919C91179760877187828757
:104C7000938718966D917D918D919C911B97648778
:104C8000758786879787208B318B428B538B6D91ED
:104C90007D918D919C9113979058648B758B868B29
:104CA000978B1496ED90FD900D911C91179717FB23
:104CB000109517F91095E08EF18E028F138F8D915C
:104CC0009D910D90BC91A02D848F958FA68FB78F4D
:104CD00020A331A342A353A31F910F91FF90EF9004
:104CE0000895F8948091B8059091B90590931207B2
:104CF00080931107789420911107309112078091C9
:104D00003806909139062817390738F0281B390BD7
:104D10003093D0052093CF0508C080959095820FE1
:104D2000931F9093D0058093CF054091CF0550916C
:104D3000D00589E991E0489F9001499F300D589F27
:104D4000300D112484EC99E0821B930B0DC010925E
:104D5000B200853691053CF02091B2002832E0F394
:104D60008055904001C0019790932D0880932C08A6
:104D700080912C0890912D081816190644F3809103
:104D800054058F5F8093540580919305909194050D
:104D900097FF05C010922F0810922E080AC024E039
:104DA0008F37920714F08EE794E090932F0880934A
:104DB0002E08809195059091960597FF05C0109259
:104DC0002A08109229080AC024E08F37920714F0AD
:104DD0008EE794E090932A088093290880919705A4
:104DE0009091980597FF05C01092330810923208F1
:104DF0000AC024E08F37920714F08EE794E0909376
:104E00003308809332088091990590919A0597FF15
:104E100005C010922808109227080AC024E08F3796
:104E2000920714F08EE794E0909328088093270867
:104E3000469A449A429A80911C07813011F4439A11
:104E400009C0823039F480915405843019F4439AB2
:104E5000109254058091200790E0805E9C4F0DC019
:104E60001092B200853691053CF02091B2002D32AF
:104E7000E0F38055904001C0019790932D088093F6
:104E80002C0880912C0890912D081816190644F3CF
:104E900080E090E020912E0830912F088217930730
:104EA00008F046982091290830912A088217930724
:104EB00008F0449820913208309133088217930704
:104EC00008F042982091270830912808821793070C
:104ED00008F04398029624E082389207D9F6F894B5
:104EE0008091B8059091B905909339068093380662
:104EF00078940895209184003091850090E0880F87
:104F0000991FFC01ED5BF74F40815181DC01A952F3
:104F1000BA4F4217530748F420918400309185001E
:104F200080819181281B390B0AC0208131818091B9
:104F300084009091850020953095280F391F119697
:104F40003C932E930895209184003091850090E049
:104F50000596880F991FFC01ED5BF74F4081518149
:104F6000DC01A952BA4F4217530740F48081918166
:104F7000281B390B11963C932E9308954081518143
:104F800040955095420F531F11965C934E93089590
:104F90002098809117078823F1F41092D105529838
:104FA00050985398229885E18093690087E08DBBE3
:104FB0008CBB809168008A608093680080916C004F
:104FC000816080936C008091730081608093730096
:104FD0008BB38A608BBB81E08093D1053D98389874
:104FE0003F9839988091680086608093680080912E
:104FF0006C00816080936C0080916D00836A809367
:105000006D008BB386608BBB80910A0881608093B2
:105010000A0880910A08806180930A08F8948091B8
:10502000AC069091AD0690933B0880933A0880912E
:10503000AC069091AD0690933D0880933C0878941F
:1050400080913808909139089093390880933808F6
:1050500080913408909135089093350880933408F6
:105060000895F89490E0FC01EE0FFF1FEE0FFF1F74
:10507000E80FF91FE60FF11DEE0FFF1FE952FA4F7F
:10508000208131817894C9010895F89490E070E00E
:105090009C01220F331F220F331F280F391FA90134
:1050A000460F571F440F551FFA01E952FA4F8081EE
:1050B000918178944657584FFA0140815181841B61
:1050C000950B260F371F2E52384FF9016081772735
:1050D00067FD70950E94393BCB010895F8948823B1
:1050E00011F54091AC065091AD0660913A0870916F
:1050F0003B08461B570B4531510520F080910A08AB
:10510000816034C04091AC065091AD0660913C087E
:1051100070913D08461B570B4531510568F1809150
:105120000A08826023C0813039F54091AC06509165
:10513000AD066091380870913908461B570B453110
:10514000510520F080910A08806110C04091AC06A2
:105150005091AD066091340870913508461B570B8D
:105160004531510548F080910A08806280930A0811
:10517000789420E030E041C0282F30E0C901880F4A
:10518000991FA901B3E0440F551FBA95E1F7840FA9
:10519000951FFC01E952FA4F4681578150933F0811
:1051A00040933E08789440913E0850913F088C55BA
:1051B000984FFC0180819181481B590B50933F0807
:1051C00040933E0880913E0890913F08F901EE0F10
:1051D000FF1FEE0FFF1FE20FF31FEB52F84F60812E
:1051E000772767FD70950E94393B70933F08609365
:1051F0003E0820913E0830913F08C9010895CF92A2
:10520000DF92EF92FF920F931F93CF93DF93C0E053
:10521000D0E02DC00330110539F48C2F0E946E2888
:10522000F701918380831AC08C2F602F0E9445283C
:10523000F601E00FF11FEE0FFF1FE65CF94F9183BF
:105240008083808191818F30910544F480819181A8
:105250003FEF823F930714F0118210820F5F1F4FC0
:1052600005301105B9F62196C230D105C9F000E02C
:1052700010E06E01CC0CDD1CCC0CDD1CCC0EDD1E58
:105280007E01EE0CFF1CCE0153E0880F991F5A954A
:10529000E1F7E80EF91E80E496E0E80EF91EBACFB9
:1052A000DF91CF911F910F91FF90EF90DF90CF9002
:1052B000089569E576E0282F30E0F901EE0FFF1F31
:1052C00093E0220F331F9A95E1F7E20FF31FE60FE9
:1052D000F71F118210824AEE56E0282F30E0F901C4
:1052E000EE0FFF1FA3E0220F331FAA95E1F7E20F95
:1052F000F31FE40FF51F2EEF3FEF31832083A82F1C
:10530000B0E0FD01EE0FFF1F93E0AA0FBB1F9A95BF
:10531000E1F7EA0FFB1FE60FF71F13821282A82F97
:10532000B0E0FD01EE0FFF1F93E0AA0FBB1F9A959F
:10533000E1F7EA0FFB1FE40FF51F33832283A82F49
:10534000B0E0FD01EE0FFF1F93E0AA0FBB1F9A957F
:10535000E1F7EA0FFB1FE60FF71F15821482A82F53
:10536000B0E0FD01EE0FFF1F93E0AA0FBB1F9A955F
:10537000E1F7EA0FFB1FE40FF51F35832483A82F05
:10538000B0E0FD01EE0FFF1F93E0AA0FBB1F9A953F
:10539000E1F7EA0FFB1FE60FF71F17821682A82F0F
:1053A000B0E0FD01EE0FFF1F93E0AA0FBB1F9A951F
:1053B000E1F7EA0FFB1FE40FF51F37832683A82FC1
:1053C000B0E0FD01EE0FFF1F93E0AA0FBB1F9A95FF
:1053D000E1F7EA0FFB1FE60FF71F11861086682F13
:1053E00070E0FB01EE0FFF1FB3E0660F771FBA9569
:1053F000E1F7E60FF71FE40FF51F318720870895C7
:10540000DF92EF92FF920F931F93CF93DF93D82EEB
:10541000282F30E08901000F111F73E0220F331F86
:105420007A95E1F7020F131F075A194F282F30E022
:10543000E901CC0FDD1F53E0220F331F5A95E1F72E
:10544000C20FD31FC651D94FEE24FF248D2D6E2DD0
:105450000E9431289C01009781F0F80180819181A0
:105460008217930718F43183208307C088819981BC
:105470002817390710F4398328830894E11CF11C9C
:105480000E5F1F4F2296F5E0EF16F104F9F6DF915B
:10549000CF911F910F91FF90EF90DF900895159895
:1054A000169817981198149812980895EF92FF92F1
:1054B0000F931F93CF93DF938B017A01C82FD0E016
:1054C0000E942F2CCC0FDD1FC556DA4F998388839D
:1054D000888199816BEA75E04AE050E00E94BC3B0C
:1054E000888199818017910750F088819981E81609
:1054F000F90628F08BEA95E06FE171E004C08BEAD1
:1055000095E062E271E00E94903B8BEA95E0DF91CA
:10551000CF911F910F91FF90EF9008958F929F92DE
:10552000AF92BF92CF92DF92EF92FF920F931F93B1
:10553000DF93CF930F92CDB7DEB725B12695269591
:105540002695217010929C0510929B0510929E0545
:1055500010929D051092A00510929F051092A20531
:105560001092A1051092A4051092A3051092A60511
:105570001092A50569E1C62ED12C34C08401000F1C
:10558000111F05561A4FF801E080F180F501819155
:105590005F0129830E942F2CE80EF91EF801F18289
:1055A000E0820894811C911C2981F7E08F169104F8
:1055B00029F78FE097E20197F1F700C0000085B16D
:1055C00086958695869580958170880F880F880FBF
:1055D00095B1977F982B95B90894C108D108C1144B
:1055E000D10439F045E2A42E41E0B42E8824992458
:1055F000C5CF2170220F220F220F85B1877F822B0A
:1056000085B906EB17E0EE24FF24F701EE0FFF1F2C
:10561000E556FA4F6081718180E090E00E94B539D3
:1056200020E030E048EC51E40E941C39F80161931D
:105630007193819391938F010894E11CF11CF6E022
:10564000EF16F10411F78091160784608093160716
:105650000F90CF91DF911F910F91FF90EF90DF900E
:10566000CF90BF90AF909F908F90089583E00E945D
:105670002F2C24E630E0AC01429FC001439F900DE7
:10568000529F900D112464E771E00E94253BCB01ED
:1056900008956F927F928F929F92AF92BF92CF9216
:1056A000DF92EF92FF920F931F93CF93DF9305E268
:1056B00011E086EBE82E87E0F82EC0E0D0E00F2E58
:1056C000F0E06F2EF0E07F2EF0E08F2EF0E09F2EC6
:1056D000F02DF80181918F010E942F2CF701A190EC
:1056E000B190C190D1907F01BC0180E090E00E9418
:1056F000B539A60195010E94B3389B01AC01FE01AA
:10570000EE0FFF1FEE0FFF1FE958F94F2083318383
:105710004283538360817181828193810E948439A5
:10572000272F862F922F97FF03C0909581959F4F2B
:10573000843091055CF4FE01EE0FFF1FEE0FFF1F9A
:10574000E958F94F60827182828293822196C33038
:10575000D10509F0BECF08E211E0E2ECEE2EE7E061
:10576000FE2EC3E0D0E0F80181918F010E942F2C22
:10577000F701A190B190C190D1907F01BC0180E070
:1057800090E00E94B539A60195010E94B3389B01B3
:10579000AC01FE01EE0FFF1FEE0FFF1FE958F94F9E
:1057A00020833183428353832196C630D105D9F6B5
:1057B0000E94362B9C01B901882777FD8095982F90
:1057C0000E94B739E7E7F6E0608F718F828F938F81
:1057D000DF91CF911F910F91FF90EF90DF90CF90CD
:1057E000BF90AF909F908F907F906F900895789426
:1057F0001F920F920FB60F9211242F938F939F93A6
:10580000EF93FF9320915505E22FF0E0809178000F
:1058100090917900EE0FFF1FE95AF74F9183808333
:10582000822F8F5F87708093550580937C00EAE715
:10583000F0E0808180648083FF91EF919F918F9150
:105840002F910F900FBE0F901F9018958FEF8093A0
:105850007E0010927C008FED80937A000895F8947A
:10586000E82FF0E0EE0FFF1FE95AF74F208131815A
:105870007894C90108958091B705882311F084FDBB
:10588000FFCF0895089590E0880F991F8951944F94
:10589000FC0125913491C9010895CF93DF93EC0168
:1058A000009731F4C0915805D0915905209739F0EF
:1058B00087E060E00E940E0CCE010E94080DDF918F
:1058C000CF9108958091B70580FF10C08BE591E0DE
:1058D0000E945F0E80E060E00E940E0C8FE09DE071
:1058E0000E94080D80E090E00E945F0E8091B70555
:1058F00084FF04C010921B070E94F50F08950F93B8
:105900001F93CF93DF938091B7058823A1F184FF84
:1059100019C015E088EC90E062E00E94960E86E4E3
:1059200090E061E00E94970B1150A1F70E948E2A2F
:105930000E94F50F8BEE9CE09093590580935805DB
:105940000E944D2CC6EBD7E010E0812F60E30E944F
:105950000E0C69917991899199910E9484399B01EA
:10596000AC01812F60E3A90125E000E00E94FE0D5B
:105970001F5F163051F7DF91CF911F910F9108955E
:10598000EF92FF920F93CF93DF933CE2E32E31E04F
:10599000F32EC0E0D0E0F70181917F010E942F2C0F
:1059A000AC01825C914001E0F1E08F359F0708F483
:1059B00000E08C2F60E324E00E94FE0D2196C630AB
:1059C000D10549F783E00E942F2CAC0186E060E30B
:1059D00024E000E00E94FE0DDF91CF910F91FF9037
:1059E000EF900895813099F0813018F08230E1F421
:1059F00015C08091DD07882329F480E296E06CEFE2
:105A00007DE009C080E296E06EEE7DE004C080E2B9
:105A100096E060EE7DE00E94773B089580E296E09C
:105A200062ED7DE00E94773B0895FC01808181302A
:105A300059F0813018F0823059F409C08091DD07A7
:105A4000882311F481E001C082E0808308951082F0
:105A50000895AF92BF92CF92DF92EF920F931F9370
:105A6000DF93CF930F92CDB7DEB7182F6A0159019C
:105A70008E2D69830E94160D812F69810E940E0C64
:105A8000002311F0C60101C0C5010E94080D80E08D
:105A90000E94160D0F90CF91DF911F910F91EF9003
:105AA000DF90CF90BF90AF900895809156058130E0
:105AB00021F40E94F50F109256050895EF920F936E
:105AC0001F93182F20910A088091D10530E02F7084
:105AD000307001E02115310509F000E091E08130DE
